:020000040800F2
:10000000A0790120A90100089DB301083BD3000895
:10001000FFAB01084F640008C5F4010800000000B0
:100020000000000000000000000000000FD20108E6
:100030000D8500080000000055B8010899E9010885
:10004000C3010008C3010008C3010008C301000880
:10005000C3010008C3010008C3010008C301000870
:10006000C3010008C30100087D960008C301000811
:10007000C3010008C3010008C3010008C301000850
:10008000C3010008C3010008C3010008000000000C
:10009000000000000000000000000000839600083F
:1000A000C3010008C3010008C301000879EA010880
:1000B000C301000885EA0108C3010008C301000864
:1000C000C3010008C3010008C3010008C301000800
:1000D000C3010008A9F30108C301000800000000E3
:1000E00075960008C3010008C30100080000000065
:1000F000000000000000000000000000C301000834
:1001000000000000C3010008C3010008C30100088B
:1001100000000000000000000000000000000000DF
:10012000C3010008C3010008C3010008C30100089F
:10013000C3010008000000000000000000000000F3
:10014000000000000000000000000000C3010008E3
:10015000C3010008C3010008C3010008C30100086F
:10016000C3010008C30100080000000000000000F7
:10017000000000000000000000000000000000007F
:1001800000000000C30100080000000000000000A3
:10019000C3010008DFF80CD001F01AFA004800474C
:1001A0005F5B0208A07901200648804706480047A7
:1001B000FEE7FEE7FEE7FEE7FEE7FEE7FEE7FEE717
:1001C000FEE7FEE725EA0108950100082DE9F05F4A
:1001D0000546002092469B468846064681464024B6
:1001E0001BE0284641464746224600F051F8534658
:1001F0005A46C01A914110D311461846224600F0C3
:10020000AFFF2D1A67EB01084F462246012000215F
:1002100000F0A6FF17EB00094E41201EA4F10104D7
:10022000DFDC484631462A464346BDE8F09F2DE9CB
:10023000F0410024061B254671F1000605DA012471
:100240000027D0EB070067EB0101161E73F10006D3
:1002500005DA0027D2EB0702012567EB0303FFF75E
:10026000B5FF86460E4617469C46AC4204D0002594
:10027000D0EB050E65EB010624B10020D2EB0007A0
:1002800060EB030C704631463A466346BDE8F081A8
:10029000202A04DB203A21FA02F00021704721FADB
:1002A00002F3D040C2F12002914008431946704742
:1002B00000487047F828040810B50446FFF7F8FF17
:1002C0000068005D00F0010010BD00000649074A0B
:1002D0000868504343F239021044086040087047F0
:1002E0000149086070470000840D00206D4EC64132
:1002F00038B5D0E90221491E01EB410102EBC101F1
:100300004268C1EB011102EB81010268C1EB0111EE
:1003100002EB8102D0E9043101EB410103EB8101E1
:100320003023A1F5527191FBF3F4174D6C4302EBAE
:10033000C41291FBF3F403FB141100921A2902DB9F
:10034000124B1A4400920C2291FBF2F3104C6343BF
:10035000009C04EBC313009391FBF2F302FB131117
:100360000C4A08E0491E40F2A324535C6343009CFE
:1003700004EBC31300930029F4DC0146684600F047
:1003800017FF009838BD00003F0C0F00805101009E
:1003900067C20300FC28040870B5054601B90721AF
:1003A000541A241DB4F5B67F09DD286800F036F92B
:1003B000A04204DC2868401C2860012070BD002C8D
:1003C00005DA2868401E286000F028F90444072058
:1003D00094FBF0F0401C70BD2DE9F04F89B01D4634
:1003E0008A468046002401AF4FF0070B0192079028
:1003F00057F8241011F8010B47F8241048B12528AC
:100400000DD0BAF1010F06D908F8010BAAF1010AC3
:100410005CE0641E5AE0002009B0BDE8F08F11F8DE
:10042000010B47F824100028F3D002264FF03009C2
:100430005A284BD020DC4D2873D014DC442871D0CE
:1004400008DC2528DDD041282AD042282ED0432898
:100450003CD130E0462847D0472857D0482862D0C2
:10046000492833D161E0523808282FD2DFE800F064
:10047000787AA6838A97A6A86138192826D2DFE859
:1004800000F00D1318202E253513255C25256064FA
:100490002566256D257375258B9BA0006AA000E05D
:1004A00070A0A9690091B4E07DA000E088482969A6
:1004B000F8E788A007E06969642091FBF0F0133049
:1004C00082E0E86880E0641C47F82400002C8FDAA2
:1004D000002088F800000799A8EB01009CE7E86875
:1004E0004FF02009009070E07EA0ECE7686900F210
:1004F0006C700090D5E906126846FFF74DFF009931
:10050000642091FBF0F200FB12105DE068690426A4
:1005100000F26C700090D5E906126846FFF73CFFC8
:1005200053E010E048E0A8684EE0A8680C211730BE
:1005300090FBF1F201FB120001E0E8690326401C88
:1005400042E02869FBE768683EE069A0BBE7A8686D
:100550000C2801DA67A0B6E767A0B4E767A0B2E7A6
:1005600069A0B0E728682FE069A0ACE7A869012678
:1005700008BB072028E0D5E90610401AC01D90FBF3
:10058000FBF021E0686900F26C700090D5E906127A
:100590006846FFF701FF17E00126A86914E0A96982
:1005A0005846891D91FBF0F20BFB1211EA69511AB2
:1005B000C91D91FBFBF007E056A084E758A082E735
:1005C0000426686900F26C70009000218DF8181004
:1005D00006A80A2113E0009A92FBF1F301FB132213
:1005E000303200F8012D009A92FBF1F2009232B9FC
:1005F00001E000F8019D321EA6F10106F9DC321E71
:10060000A6F10106E7DC5EE710F8011B0029FBD12B
:1006100000994A1E00920029F6DC54E781070CD1AC
:10062000642190FBF1F201FB120151B94FF4C87142
:1006300090FBF1F201FB120018B1002000F26D10E6
:1006400070470120FAE7000053756E004D6F6E0091
:1006500054756500576564005468750046726900FA
:100660005361740053756E646179004D6F6E6461FF
:10067000790054756573646179005765646E6573BC
:1006800064617900546875727364617900467269B7
:1006900064617900536174757264617900000000CF
:1006A0004A616E00466562004D61720041707200E1
:1006B0004D6179004A756E004A756C00417567009E
:1006C000536570004F6374004E6F7600446563009D
:1006D000082904082561202562202565202554204D
:1006E0002559000025592D256D2D25640000000099
:1006F0000A000000414D0000504D000025493A25F8
:100700004D3A25532025700025483A254D0000001C
:1007100009000000256D2F25642F257900000000B9
:1007200025483A254D3A25530000000010B50346F0
:1007300006A21A210B48FFF74FFE0A48017A30291A
:1007400001D120210172074810BD0000256120253C
:10075000622025642025483A254D3A255320255905
:100760000A00000058A9002010B500F01BFDBDE8EC
:100770001040FFF7DBBF10B5431A934209D283182C
:10078000881803E010F8011D03F8011D521EF9D26C
:1007900010BD40EA01039B0703D009E008C9121FFE
:1007A00008C0042AFAD203E011F8013B00F8013B2B
:1007B000521EF9D210BDD2B201E000F8012B491E41
:1007C000FBD270470022F6E710B513460A460446EE
:1007D0001946FFF7F0FF204610BD421E12F8013FF8
:1007E000002BFBD111F8013B02F8013B002BF9D1A2
:1007F000704730B505462A460B4612F8010B13F830
:10080000014B08B1A042F8D01CB1002802D06D1CE9
:10081000F1E7284630BD10B5044604E00B7800F837
:10082000013B03B1491C521EF8D2204610BDCAB28A
:10083000401E10F8011F8A4202D00029F9D1002081
:100840007047421C10F8011B0029FBD1801A704729
:1008500010B5002200E0521C835C8C5CA34201D1E5
:10086000002BF8D1D8B2E1B2401A10BD30B5044621
:100870000020034600E05B1C934203D2E05CCD5CA9
:10088000401BF8D030BD034611F8012B00F8012BB6
:10089000002AF9D11846704730B5054600200346B6
:1008A00000E05B1C934205D2EC5CC85C201A01D1CD
:1008B000002CF6D130BD10B5484304461FF0F4F8C3
:1008C000002805D00021002C02D0641E0155FAE753
:1008D00010BD00000FB400B589B00BA800906A46A7
:1008E00003480A9900F0D6FD09B05DF814FB00003A
:1008F0008C0D00200FB400B58DB010A909900B909D
:1009000000914FF0FF300A9000200C9005480690AF
:10091000054807906A4609A80F9900F0A3FC0DB09E
:100920005DF814FB811200089F1200082DE9FF5F9B
:100930001D464FF0FF3BD5E9014691465F464FF01B
:100940000008A9697F1C01988847296A8246884760
:100950000028F6D1BAF1FF3F0CD024F4C064002E79
:1009600019DD600614D5BAF12B0F09D0BAF12D0F9D
:100970000ED103E0584604B0BDE8F09F44F4806413
:10098000A9697F1C01988847761E8246002E02DDE9
:10099000BAF1300F03D0B9F1000F26D032E0A969C7
:1009A000761E44F400747F1C019888478246002E0E
:1009B00005DDBAF1780F06D0BAF1580F03D0B9F1BE
:1009C000000F10D01EE0B9F1000F02D0B9F1100FE6
:1009D00018D1A969761E24F400747F1C01988847F9
:1009E0008246102002E0082000E00A20814609E04B
:1009F00008FB0908A969761E44F400747F1C01985D
:100A000088478246002E05DD4946504600F016FC18
:100A10000028EDDAE96901988847A00502D46FF053
:100A20000100A8E7E00725D1600613D5600502D5CF
:100A3000C8F1000000E0404629680A1D2A600968E4
:100A4000220501D5087015E0220701D5088011E0C4
:100A500008600FE02868011D29600068210502D5A3
:100A600080F8008006E0210702D5A0F8008001E0B0
:100A7000C0F8008038467EE72DE9FF5FD2E901A784
:100A80004FF00008916999461446DDF838B04646A3
:100A900001988847054659EA0B0005D009E0A1698D
:100AA000761C019888470546216A28468847002811
:100AB000F5D1681C03D05FEACA7005D015E04FF08D
:100AC000FF3004B0BDE8F09F2068011D2160D0F820
:100AD00000800AE05FEACA7001D108F8015BA169F1
:100AE000761C7F1E019888470546002F1ADD681C7A
:100AF00018D0B9F1000F0DD0E81705EBD060421106
:100B000020F01F0059F822102A1A012090400142BB
:100B1000E0D107E0BBF1000FDCD1216A284688470D
:100B20000028D7D0E16901988847BBF1000F07D1B1
:100B3000002E05DD5FEACA7002D1002188F800109E
:100B4000A068B84203DDBBF1000F03D017B16FF00E
:100B50000100B6E73046B4E72DE9F04791460F466D
:100B600080460446002614F8015B2DB1FFF7A0FB78
:100B70000068405DC007F6D12B2D02D02D2D18D076
:100B8000641E4A463946204600F09AFB27B1396870
:100B9000A14201D1C7F8008071054FF002040BD5C6
:100BA0004042002803DD1EF093FE0460A007BDE86C
:100BB000F08746F48066E4E70028F8DA1EF088FE45
:100BC00004606FF00040F2E72DE9F05F93460F46B6
:100BD0008046044600261EF07BFED0F80090824638
:100BE00014F8015B2DB1FFF763FB0068405DC0079F
:100BF000F6D12B2D02D02D2D1AD0641E0021CAF85B
:100C000000105A463946204600F05AFB014627B1EB
:100C10003868A04201D1C7F80080DAF80000022845
:100C200009D0CAF80090700505D54842BDE8F09F8C
:100C300046F48066E2E70846F8E700F0ECBB70B5E2
:100C400006461EF045FE046805460A22002130468D
:100C5000FFF782FF2C6070BD70B506461EF038FEAF
:100C6000046805460A2200213046FFF775FF2C6014
:100C700070BD2DE9FE4F804681EA0300C00F0C468F
:100C8000009021F0004123F00045B8EB0200A9419B
:100C900005D24046214690461C460B46024623F0AC
:100CA0000040104347D0270DC7F30A00C3F30A5191
:100CB0000290401A019040286BDAC3F3130040F40D
:100CC000801B0098924620B10023D2EB030A63EB0D
:100CD0000B0B01985946C0F14002504600F040FA13
:100CE00006460D4650465946019A00F048FA10EB68
:100CF00008006141002487EA115284EAE7731A432D
:100D000040D0009A62B3019A012A4FEA075215DCDB
:100D1000001B61EB02014FF0004202EA0752CDE9ED
:100D20000042001C41F5801132462B4600F002FCC7
:100D300003B0BDE8F08F40462146F9E7001B61EBA8
:100D40000201001C41F5801300185B412018A2F538
:100D5000001747EB030140EAD570B6196D4111E069
:100D60006D084FEA360645EAC0754FEA0752001B88
:100D700061EB0201001C41F5801149084FEA300087
:100D80000019514132462B4603B0BDE8F04F00F048
:100D9000C2BB0098012240000023D0EB020263EBAB
:100DA000E073009821464FEAE074B8EB000061EB75
:100DB0000401E9E783F000435BE781F0004158E775
:100DC0002DE9FE4F81EA030404F0004421F00041C4
:100DD00000944FF0000B23F0004350EA01045ED072
:100DE00052EA03045BD0C3F30A54C1F30A552C44FE
:100DF000A4F2F3340194A0FB0254C1F3130141F4B3
:100E00008011C3F3130343F4801301FB024400FB7E
:100E1000034E840A970A44EA815447EA8357A4FBA5
:100E2000076802958D0A05FB07854FEA932C04FBA2
:100E30000C542705029D4FEA065847EA1637B5EBD2
:100E400008056EEB070C870E920E47EA811742EAFF
:100E50008312A7FB0201B6EB0B0164EB00042B0D20
:100E600043EA0C335E1844EB1C50DA465146E7FB6C
:100E70000201C5F313044FEA0B3343EA14534FEA5C
:100E80000432019C43EA0603A4F10C040294009C82
:100E9000CDE900B400F04EFB03B0BDE8F08F0020B8
:100EA0000146F9E72DE9F04D81EA030404F0004B17
:100EB00021F0004514464FF0000A23F0004150EAAB
:100EC000050220D054EA01021DD0C5F30A5702469C
:100ED000C5F31303C1F31300C1F30A5640F48015A0
:100EE00043F48013A7EB0608101BD64608F2FD3822
:100EF00073EB050002D308F1010801E092185B4191
:100F0000B8F1000F03DA00200146BDE8F08D0020A3
:100F10004FF48011064684460EE0171B73EB05075D
:100F200005D3121B63EB050306434CEA010C490889
:100F30004FEA300092185B4150EA0107EDD152EAC6
:100F4000030012D082EA040083EA0501084305D0B9
:100F5000101BAB4106D20122002306E000224FF015
:100F6000004302E06FF0010253101AEB06004CEB55
:100F7000085110EB0A0041EB0B01BDE8F04D00F009
:100F8000CABA0EB5C10F80EAE0700844CA07002152
:100F900040F233438DE80E000A460B4600F0CAFAD1
:100FA00003B000BD0EB540F2334102910021CDE9FE
:100FB00000110A460B4600F0BDFA03B000BD0EB5A5
:100FC00040F2334202920022CDE90022134600F0A3
:100FD000B1FA03B000BD70B5C1F30A5201F000458B
:100FE0000024C1F3130140F2FF3341F480119A420F
:100FF00001DA002070BD40F233439A42A2F233423C
:1010000003DC5242FFF744F900E090402C43F1D05A
:10101000404270BDC1F30A5210B5C1F3130140F252
:10102000FF3341F480119A4201DA002010BD40F2F2
:1010300033439A42A2F2334203DC5242FFF728F9CB
:1010400010BD904010BDC1F30A52C1F3130140F22C
:10105000FF3341F480119A4202DA002001467047C2
:1010600040F233439A42A2F2334202DC5242FFF78B
:101070000FB900F075B800F0004230F000400AD01F
:10108000C10D01F56071C0F3160042EA0151C208BA
:1010900040071143704700200146704730B5041ED9
:1010A00071F1000404DB4FF00044404264EB0101A5
:1010B000141E73F1000405DB1C464FF0004352423E
:1010C00063EB04038B4208BF824230BD30B5041E7F
:1010D00071F1000404DB4FF00044404264EB010175
:1010E000141E73F1000405DB1C464FF0004352420E
:1010F00063EB0403994208BF904230BD01F0004306
:1011000030B421F0004150EA010206D00A0DA2F5E8
:101110006072C1F31301002A02DC30BC002070476A
:10112000440F44EAC104C100E01830BC00EBC250D7
:1011300000F0BAB930B50B46014600202022012448
:1011400009E021FA02F59D4205D303FA02F5491B95
:1011500004FA02F52844151EA2F10102F1DC30BDAB
:10116000202A04DB203A00FA02F100207047914067
:10117000C2F1200320FA03F3194390407047202A5C
:1011800006DBCB17203A41FA02F043EAE07306E0AF
:1011900041FA02F3D040C2F12002914008431946BF
:1011A00070470000014900F003B8000074A9002056
:1011B00010B500683C22B0FBF2F302FB1303B0FB56
:1011C000F2F00B60B0FBF2F302FB1303B0FBF2F0A2
:1011D00018224B60B0FBF2F302FB1303B0FBF2F0FA
:1011E000021D8B600723B2FBF3F403FB1422800083
:1011F00040F2B55300F66C308A61B0FBF3F2B0FBFD
:10120000F3F403FB1400443280084A61C8613B28B0
:1012100002D3920700D0401C0022074C13460A61FB
:10122000E25C824203D8801A5B1C0B61F8E7401C29
:10123000C860084610BD00005E2904083A2800D2A4
:10124000303820F02002412A01D3A2F13700884231
:1012500001D34FF0FF3070470268114413780160EA
:1012600018467047D1600449516104491162002158
:101270001161114600F0D4B959120008B9020008F2
:10128000426842B1016811F8013B23B1521EC0E926
:101290000012184670470121C160881E70474268DD
:1012A0005AB1C368016843B983688B4205D0491EAF
:1012B000521CC0E90012002070474FF0FF30704709
:1012C0002DE9F05F82460078002715468B460AF12B
:1012D0000104B946302801D09DB113E014F8010B88
:1012E0000127782803D0582801D045B10AE00DB174
:1012F000102D07D10027102514F8010B02E0082556
:1013000000E00A250026B0460EE005FB080005FBBC
:1013100006F1012701EB10461FFA80F8B6F5803F71
:1013200000D3B94614F8010B2946FFF787FF0028C0
:10133000EBDABBF1000F05D00FB1641E00E054469C
:10134000CBF80040B9F1000F06D01EF0C1FA02211F
:101350000160C81EBDE8F09F48EA0640FAE70000B9
:101360000FB4002300B589B00CA900910B996FF060
:101370000042CB601E4B06931E4B07930423CDE91E
:1013800001321D4A089202466B46002000F072FBB3
:1013900009B05DF814FB70B586B006464FF0FF301B
:1013A0000091CDE90101002015460C46049032461B
:1013B000694604A8FFF7D4FF02460498211825B116
:1013C00008B1084600E020462860049800280DD0A7
:1013D000002A02DD0098884208D0081B0094CDE95D
:1013E00001043246694604A8FFF7BAFF06B070BD93
:1013F000811200089F120008B90200087CB5002382
:10140000CDE9003305466846FFF7C5FF6946284623
:101410001EF072FB7CBD2DE9F05F93460F468046BF
:10142000044600261EF054FAD0F80090824614F8C4
:10143000015B2DB1FEF73CFF0068405DC007F6D1AF
:101440002B2D02D02D2D1FD0641E0021CAF80010B4
:101450005A463946204600F029FC024627B1386832
:10146000A04201D1C7F80080DAF8000002280ED0AF
:10147000CAF8009070050AD500200346D2EB0000A0
:1014800063EB0101BDE8F09F46F48066DDE710469E
:10149000F8E70000024B9361024BD361FFF7E2BE15
:1014A0005D3A0208111600080029A8BF7047401CC9
:1014B000490008BF20F00100704710B4B0FA80FC6A
:1014C00000FA0CF050EA010404BF10BC704749B1A7
:1014D000CCF1200421FA04F411FA0CF118BF012117
:1014E00021430843A3EB0C01CB1D4FEA00614FEAF7
:1014F000102042BF002010BC704700EBC3501044C6
:101500000029A4BF10BC7047401C490008BF20F050
:10151000010010BC704710B5141E73F1000408DA06
:10152000401C41F1000192185B411A4301D120F0A7
:10153000010010BD2DE9F04D92469B4611B1B1FA64
:1015400081F202E0B0FA80F220329046FFF708FE06
:1015500004460F4640EA0A0041EA0B0153465A4648
:10156000084313D0114653EA010019D0C8F14002D4
:101570005046FEF78DFE05460E46504659464246F9
:10158000FFF7EEFD084305D0012004E02046394670
:10159000BDE8F08D0020054346EAE0762C43374352
:1015A0000A986305E40AA0EB08000022FD0A44EA59
:1015B00047540A3002D500200146E9E70105101919
:1015C0006941DDE9084500196941BDE8F04DA2E730
:1015D000064C074D06E0E06840F0010394E8070080
:1015E00098471034AC42F6D3FEF7D8FD784A040889
:1015F000984A0408094910B508784C1C18B1401ED7
:101600000870205C10BD00210720ABBE207010BD0B
:1016100002490878421C0A7070470000980D0020AB
:101620002DE9F34F8BB04FF0000801F10C000C4690
:101630004FF0010B46460DF1080A01906269012145
:1016400001989047051E2DD0252D2CD0216A884762
:10165000C0B16269012101989047216A884700283A
:10166000F7D1411E62690198904700E0761CA1699C
:101670000B988847216A88470028F7D1E1690B98C1
:101680008847DBE7A1690B9888470746A84201D144
:10169000761CD3E7E1690B9888477F1C02D1B8F12B
:1016A000000F6FD046E1002762693D463946019838
:1016B00090472A2804D162690121019890470125A9
:1016C000DFF884926269012101989047A0F130010E
:1016D0000A290AD24F45E5DC07EB870100EB4107F9
:1016E000303FDFD445F01005ECE7E90601D46FF098
:1016F00000476C280AD04C2814D0682815D06A28D6
:101700000DD074281CD07A281AD01DE062690121FE
:10171000019890476C2802D045F0040514E045F08C
:1017200002050DE045F020050AE0626901210198FB
:101730009047682802D045F0080505E045F40065AB
:101740006269012101989047C4E9015765283DD09D
:1017500019DC58287AD00CDC452837D004DC252841
:1017600026D0412831D131E046282FD047282CD12E
:101770002CE05B2877D0612828D063287CD06428AF
:1017800023D15AE0D0E06F2848D008DC66281DD06D
:1017900067281BD0692821D06E2816D127E0702831
:1017A00045D0732868D0752847D078280DD14DE0F2
:1017B000A1690B988847054625283FF469AFE16980
:1017C0000B9888476D1C3FF46AAFB3E023466A4626
:1017D0006FF001000B9900F04DF99EE045F04000DC
:1017E0006060A80723464FF0000236D43EE0E807C9
:1017F0007FF447AF2068011D21600068290501D5ED
:1018000006701BE7290701D5068017E7A90703D54E
:10181000F117C0E9006111E706600FE745F04000ED
:101820006060A80723464FF0080216D41EE040F679
:101830000E0125EA0100606016E045F0400060609E
:10184000A80723464FF00A0207D40FE045F04000F6
:101850006060A80708D5234610226FF001000B999D
:10186000AFF3008059E007E0234610226FF001003B
:101870000B99FFF75BF850E04FF000094F464B46DD
:10188000632802D05B2806D040E0E80601D401209E
:10189000A06001273AE062690121019890475E2823
:1018A00005D14FF0010962694946019890472169C5
:1018B00039B900210A46534643F82120491C08291A
:1018C000FADBB0B3216969B9C11700EBD1625311DA
:1018D0000AEB830122F01F02821A01200B6890405C
:1018E00003430B6062690121019890475D28E8D1AC
:1018F000B9F1000F09D00020514651F82020D24301
:1019000041F82020401C0828F7DB02AB2246009754
:101910006FF001000B99FFF7AFF800280CDA401CBC
:1019200008D1BBF1000F05D04FF0FF300DB0BDE87E
:10193000F08FFFE74046F9E7E90701D108F1010818
:1019400006444FF0000B79E6CCCCCC0C2DE9FF4FD0
:10195000087883B09946FF2805D0491C2D2804D06B
:101960000024002008E000200BE00124F9E700EB50
:10197000800003EB4000491C0B78FF2BF7D104B12A
:10198000404200230293147819461D462D2C01D0A5
:101990002B2C04D1521C2D2C13D000240294AA46C7
:1019A0001478FF2C0FD00A25A3FB057801FB0581D5
:1019B0004FF0000C03FB0C11521CE3194AEB010120
:1019C000EEE70124EAE7814453EA010002D019F569
:1019D000C87F06DA03980021C0E9001107B0BDE80E
:1019E000F08F0025AE4E2F46DFF8B8821846FFF77D
:1019F000E6FACDE90001B9F1000002DAC9F100040C
:101A000000E004460023A74A1AEB030B42EB045AFA
:101A100012E0E00707D02A46334638464146FFF732
:101A2000CFF9074688462A46334610461946FFF73F
:101A3000C7F905460E466410002CEAD1DDE9000125
:101A4000B9F1000F5A46534606DAFFF72BFA3A4629
:101A50004346FFF727FA05E0FFF7B2F93A46434657
:101A6000FFF7AEF9029A0AB181F00041039AC2E988
:101A70000001B3E72DE9FF4F1F468DB0D7E90146BE
:101A80004FF0FF382E2045464FF000090B90B96902
:101A90006D1C0E988847396A824688470028F6D11F
:101AA000BAF1FF3F0AD024F4D064002E11DDBAF160
:101AB0002B0F08D0BAF12D0F0BD102E0404611B028
:101AC0008DE744F48064B9696D1C0E98884782469E
:101AD000761E6946600501D52D2000E02B208DF88B
:101AE000000001F1010B0DF1200809E0B9696D1C3E
:101AF0000E98884782460F9844F40074761E05605D
:101B0000002E02DDBAF1300FF0D00B998A453ED19C
:101B100044F0800406E00F99681CA9F1010944F41F
:101B200000740860B9696D1C761E0E98884782465D
:101B30003028F0D02BE00B998A4505D1200603D43C
:101B400044F08004761E18E050461EF0B5F808B345
:101B50000DF11301761E44F400748B4508D2AAF1EE
:101B600030000BF8010B200607D5A9F1010003E0B6
:101B7000200602D409F101008146A00502D50F9983
:101B8000681C0860B9696D1C0E9888478246002E53
:101B9000D1DC53E0002E51DDBAF1650F02D0BAF16D
:101BA000450F4BD1A00549D5B9696D1C24F440748B
:101BB000761E0E9888478246002E0CDD2B2804D016
:101BC000BAF12D0F07D144F48074B9696D1C0E98D9
:101BD00088478246761EE00501D52D2100E02B21A5
:101BE00008F8011BCDF82C8021E00DF12901761EAB
:101BF00044F4007488450CD2AAF1300010F0FF00C4
:101C000088F8000002D10B99884509D908F101082C
:101C100006E0E00501D5244801E042F20F7081465C
:101C2000B9696D1C0E98884782460F980560002E92
:101C300004DD50461EF040F80028D6D1F9690E9810
:101C40008847FF208BF8000088F8000000200690ED
:101C500007904B466A4608A906A8FFF777FEA0053D
:101C600002D46FF001002AE714F0240F0AD0E00735
:101C700014D1DDE906123868031D3B600068C0E935
:101C800000120BE0DDE90601FFF738FA0146E00734
:101C900004D13868021D3A600068016028460EE7EA
:101CA000000014400000F03FF1D8FFFF2DE9F74F8E
:101CB0004FF00009009C1546CA4614F8010B302865
:101CC00001D0ADB115E014F8010B4FF001097828EF
:101CD00003D0582801D04DB10BE00DB1102D08D123
:101CE0004FF00009102514F8010B02E0082500E070
:101CF0000A2500273E46B8464FEAE57B16E0A5FBDD
:101D000007230BFB073105FB080005FB0616030C38
:101D1000D71846F100061FFA80F8381E4FF0010967
:101D200076F5803000D3CA4614F8010B2946FFF738
:101D300085FA0028E3DA019838B1B9F1000F01D033
:101D4000641E00E0009C01980460BAF1000F08D006
:101D50001DF0BEFD02210160C81E014603B0BDE8B2
:101D6000F08F310441EA174148EA0740F6E70020C6
:101D7000704770B58C1810F8015B15F0070301D19E
:101D800010F8013B2A1106D110F8012B03E010F8DE
:101D9000016B01F8016B5B1EF9D12B0705D4002301
:101DA000521E0DD401F8013BFAE710F8013BCB1AA3
:101DB000921C03E013F8015B01F8015B521EF9D598
:101DC000A142D8D3002070BD0C2801D30020704759
:101DD000014951F820007047540000202DE9F041DE
:101DE00004460F461646002C03D017B10EB100254D
:101DF0000AE0012547E0206950F8250039460068CF
:101E0000FEF726FD18B16D1C6069A842F3D8606921
:101E1000A84201D9022536E0401C8100206933F038
:101E2000E7F878B1206108201DF03EFE051E0BD0BA
:101E30003946284623F0CCFE40B128461DF04CFD23
:101E4000062518E006251EE0062514E03146281D6B
:101E500023F0BEFE38B128681DF03EFD28461DF077
:101E60003BFD062507E0D4E9040140F821506069F4
:101E7000401C6061002535B160698100206933F044
:101E8000B7F818B120612846BDE8F0810625FAE7C9
:101E90002DE9F04F8BB081468A46B9F1000F13D07F
:101EA000BAF1000F12D09AF8000064240A23222607
:101EB0000A286FD00CDC0A281CD2DFE800F01BFED9
:101EC000263F6CD7FDFC1BFB02247DE20224FCE7CD
:101ED00010287DD008DC0B287BD00C287AD00D2868
:101EE00079D00E2806D183E3222875D0232803D089
:101EF000252872D00224E8E7FEA148461AF0EDFF3B
:101F000008B10124E1E70024DFE79AF8080018B1DE
:101F100001280AD00224D8E7F8A148461AF0DDFFCC
:101F200008B10124D1E70024CFE7F6A148461AF012
:101F3000D4FF08B10124C8E70024C6E700209AF8BE
:101F400008100AAA642905D3B1FBF4F53035012045
:101F50008DF828500A2909D3B1FBF4F504FB1511BB
:101F6000B1FBF3F130310446401C11559AF80810CA
:101F7000B1FBF3F403FB14133033411C1354002062
:101F800050540AA948461AF0A8FF08B101249CE75A
:101F900000249AE74EE1BAF90800012207A98DF85A
:101FA0001C60002805DA2D2502228DF81D504042C4
:101FB00000B24FF47A7C90FBFCF53035571C8D5401
:101FC00090FBFCF20CFB120292FBF4F2303205E0C3
:101FD00082E263E1FBE14EE2CAE3FFE27D1CCA5507
:101FE00090FBF4F204FB120292FBF3F230326F1C0E
:101FF0004A5590FBF3F203FB120030307A1CC855AF
:102000004FF02D0C571C01F802C09AF80A00B0FBE3
:10201000F3F030307C1CC8559AF80A00B0FBF3F29C
:1020200003FB12003030651C08556A1C01F805C01E
:102030009AF80B00B0FBF3F03030571C88549AF834
:102040000B00B0FBF3F203FB120030307D1CC855CF
:1020500028466D1C0E540020485507A948461AF022
:102060003CFF08B1012430E700242EE79AF8400035
:10207000002873D09AF8340078B3772420461DF0F6
:1020800013FD05463DB39AF842009AF94110CDE997
:102090000810DAE90E01CDE90601DAE90432DAE9DD
:1020A0000201CDE90123CDE90310DAF81800401C44
:1020B000009003E0A0E3F3E2B2E0FDE3DAF81C30C5
:1020C00092A203F26C732146284634F018F90028D6
:1020D00004DA01240AE0012476E10BE029464846AF
:1020E0001AF0FBFE08B1012400E0002428461DF090
:1020F000F3FB69E1622420461DF0D6FC0546F5B1EC
:10210000DAE902329AF842109AF94100CDE9032344
:10211000CDE90501DAE90501DAF81020491CCDE91D
:1021200001020091DAF81C3085A203F26C7321469B
:10213000284634F0E4F8002803DA012409E00124F9
:1021400042E1294648461AF0C8FE08B1012400E0E1
:10215000002428461DF0C0FB36E1FFE79AF8340062
:1021600080B3602420461DF09FFC0546E5B1DAE906
:102170000E01CDE90601DAE90432DAE90201CDE91E
:102180000123CDE90310DAF8180078A2401C009072
:10219000DAF81C30214603F26C73284634F0AFF8AD
:1021A000002803DA012409E001240DE1294648460C
:1021B0001AF093FE08B1012400E0002428461DF027
:1021C0008BFB01E1FFE74B2420461DF06DFC05462B
:1021D000C5B1DAE90432DAE90210CDE90123CDE92B
:1021E0000301DAF818006CA2401C0090DAF81C30E9
:1021F000214603F26C73284634F081F8002803DA94
:10220000012409E00124DFE0294648461AF065FE72
:1022100008B1012400E0002428461DF05DFBD3E056
:102220004846DAF808101AF07CFE08B10124CBE029
:102230000024C9E0002242F210700024BAF908100C
:1022400009AD002906DA2D2601228DF824604942C5
:1022500089B213E0BAF8081010E014B9B1FBF0F637
:1022600036B1B1FBF0F430341646521CAC550124A3
:10227000B1FBF0F600FB1611B0FBF3F00A28ECD22C
:102280003031501CA9540021295409A948461AF09C
:1022900024FE08B1012497E0002495E0002247487D
:1022A0000024DAF8081008AD002918DA2D210122DF
:1022B0008DF82010DAF80810494210E014B9B1FB8B
:1022C000F0F636B1B1FBF0F430341646521CAC5582
:1022D0000124B1FBF0F600FB1611B0FBF3F00A2865
:1022E000ECD23031501CA9540021295408A9484689
:1022F00066E000006E756C6C00000000747275651D
:102300000000000066616C736500000022252E3419
:10231000642D252E32642D252E326454252E3264F0
:102320003A252E32643A252E32642E252E31326C17
:102330006C75252B2E32643A252E32642200000063
:1023400022252E34642D252E32642D252E32645400
:10235000252E32643A252E32643A252E3264252BFE
:102360002E32643A252E32642200000022252E34BB
:10237000642D252E32642D252E326454252E326490
:102380003A252E32643A252E32642E252E31326CB7
:102390006C755A220000000022252E34642D252E53
:1023A00032642D252E326454252E32643A252E3285
:1023B000643A252E32645A220000000000CA9A3B7B
:1023C0001AF08BFD08B10124C8E30024C6E34FF0E6
:1023D0000008FD4CFD4D4FF0000BDAE90267002FBD
:1023E00034DA2D204FF001088DF81400DAE90201EB
:1023F0000027464267EB010728E0BBF1000F07D139
:1024000022462B4630463946FDF7E0FE08430DD004
:1024100022462B4630463946FDF7D8FE414605AAEE
:10242000303008F1010850544FF0010B22462B4682
:1024300030463946FDF7CAFE16461F460A220023DB
:1024400020462946FDF7C2FE04460D460A20201A02
:1024500075F10000D1D205A9303608F1010001F86C
:10246000086000220A5448461AF037FD08B10124DA
:1024700074E3002472E39AF90810002009AA0029E5
:1024800004DA2D2501208DF824504942642905DB0A
:1024900091FBF4F530350646401C95550A2909DBB9
:1024A00091FBF4F504FB151494FBF3F4303405466A
:1024B000401C545591FBF3F403FB14133033411CBF
:1024C00013540020505409A948461AF006FD08B1DB
:1024D000012443E3002441E300230022DAF80870DA
:1024E000DAF80C4000200EE0215C80290DD21F2973
:1024F00001D85B1C06E0222903D05C2901D02F29DA
:1025000000D1521C401CB842EED3B84201D2022482
:1025100024E303EB8300384400EB020808F10400D5
:102520001DF0C2FA05462DB101202E7000214FF09A
:102530005C0A2CE0012411E3625C1F2A1DD8421CB6
:1025400005F800A0752002F1010CA85430200CF110
:10255000010305F80C005A1CE854605CDFF870C2F7
:10256000531C0CEB10100078A854605C00F00F00B6
:102570001CF80020581CEA5408E0222A15D05C2AD6
:1025800019D02F2A1ED00346401CEA54491CB942D8
:10259000D2D32E5408EB0501002088702946484606
:1025A0001AF09BFCA8B1012414E0421C05F800A01D
:1025B000501CAE54EAE7421C05F800A0501C05F878
:1025C00002A0E3E7421C05F800A02F23501CAB54E7
:1025D000DCE7002428461DF07FF9BFE24846DAF820
:1025E0000C101AF07AFC08B10124B7E20024B5E21D
:1025F000DAF8080020F00041C1F1FF41C90F41B1F4
:1026000074A148461AF069FC08B10124A6E200242E
:10261000A4E21DF053F960B1DAF80800C00F40B130
:102620006DA148461AF059FC08B1012496E2002435
:1026300094E2DAF808001DF041F918B1DAF8080060
:10264000C00FB0B1242420461DF02EFA0546280004
:1026500018D0DAF80800FEF70EFDCDE900010623D8
:102660005FA22146284633F04AFE00280CDA0124F6
:1026700012E05DA148461AF030FC08B101246DE279
:1026800000246BE2012469E2294648461AF025FC41
:1026900008B1012400E0002428461DF01DF95DE288
:1026A0009AED020B8DED080BDDE9080108B1012060
:1026B00000E00020014321F000404C49081AC00FFF
:1026C00040B144A148461AF008FC08B1012445E293
:1026D000002443E251EC100B1DF0E2F878B19AEDC2
:1026E000020B8DED080B0998C00F40B13AA1484686
:1026F0001AF0F3FB08B1012430E200242EE29AED37
:10270000020B51EC100B1DF0CBF830B19AED020B1F
:102710008DED080B0998C00F98B1222420461DF0BA
:10272000C3F90546B5B19AED020B0F238DED000BF1
:102730002BA22146284633F0E2FD00280CDA0124C2
:1027400012E029A148461AF0C8FB08B1012405E2AD
:10275000002403E2012401E2294648461AF0BDFBA9
:1027600008B1012400E0002428461DF0B5F8F5E189
:1027700000241F491F4818F0F5FA0646300002D021
:10278000002504270FE00124E8E1DAF80C0007EB4C
:10279000C501425850F83510304618F084FA08B197
:1027A000012404E06D1CDAF80800A842EDD83CB919
:1027B000AFF62312494630460DF03EFA00B101242F
:1027C000304618F0E4FAC9E10000E8890423C78A1A
:1027D000282804084E614E002D494E460000000096
:1027E000252E2A6600000000494E46000000F07FBA
:1027F000D1B30108C5B301088DF804609AF8080048
:10280000000921F0A3FD8DF805009AF8080000F0FA
:102810000F0021F09BFD8DF806009AF809000009D1
:1028200021F094FD8DF807009AF8090000F00F00E0
:1028300021F08CFD8DF808009AF80A00000921F0BB
:1028400085FD8DF809009AF80A0000F00F0021F0CC
:102850007DFD8DF80A009AF80B00000921F076FD45
:102860008DF80B009AF80B0000F00F0021F06EFDC0
:102870008DF80C002D248DF80D409AF80C000009FD
:1028800021F064FD8DF80E009AF80C0000F00F00A6
:1028900021F05CFD8DF80F009AF80D00000921F081
:1028A00055FD8DF810009AF80D0000F00F0021F092
:1028B0004DFD8DF8110000E0A9E08DF812409AF866
:1028C0000E00000921F042FD8DF813009AF80E0069
:1028D00000F00F0021F03AFD8DF814009AF80F0077
:1028E000000921F033FD8DF815009AF80F0000F073
:1028F0000F0021F02BFD8DF816008DF817409AF887
:102900001000000921F022FD8DF818009AF810003F
:1029100000F00F0021F01AFD8DF819009AF811004F
:10292000000921F013FD8DF81A009AF8110000F04B
:102930000F0021F00BFD8DF81B008DF81C409AF85C
:102940001200000921F002FD8DF81D009AF8120016
:1029500000F00F0021F0FAFC8DF81E009AF8130029
:10296000000921F0F3FC8DF81F009AF8130000F025
:102970000F0021F0EBFC8DF820009AF814000009FC
:1029800021F0E4FC8DF821009AF8140000F00F000B
:1029900021F0DCFC8DF822009AF81500000921F0E6
:1029A000D5FC8DF823009AF8150000F00F0021F0F7
:1029B000CDFC8DF824009AF81600000921F0C6FC21
:1029C0008DF825009AF8160000F00F0021F0BEFCEB
:1029D0008DF826009AF81700000921F0B7FC8DF851
:1029E00027009AF8170000F00F0021F0AFFC8DF8D7
:1029F00028008DF8296000208DF82A0001A948469A
:102A00001AF06BFA08B10124A8E00024A6E0002423
:102A1000DAF8080070B1401E0321B0FBF1F0401C51
:102A20008000C01C1DF040F8051E05D022200126A4
:102A3000287037E00020F4E701248FE0DAF80C007A
:102A4000005D80081DF081FF8046DAF80C10085DFB
:102A50008007820E601C0746085C42EA10101DF0D9
:102A600074FF0A90DAF80C00C15DA71C0907C05D6D
:102A7000890E41EA90101DF068FF8346DAF80C00D9
:102A8000C05D00F03F001DF060FF0346E41C701CB9
:102A900005F806800A9A411C2A544A1C05F801B020
:102AA000561CAB54DAF80800001B0328C6D2DAF82B
:102AB00008003D27001B022802D0012826D03DE057
:102AC000DAF80C00005D80081DF03FFF8346DAF85D
:102AD0000C00015D641C8907005D890E41EA10103D
:102AE0001DF033FF8046DAF80C00005D00F00F00A7
:102AF0001DF0CAFE0146701C05F806B0461C05F81C
:102B00000080701CA955461C2F5417E0DAF80C0001
:102B1000005D80081DF019FF8046DAF80C00005DAA
:102B200000F003001DF0E0FE0246701C05F8068070
:102B3000411C2A54481C6F54461C2F542221701CDF
:102B4000A95500212954294648461AF0C6F908B16A
:102B5000012400E0002428461CF0BEFE0BB02046F5
:102B6000BDE8F08F2DE9F04188B031F0BBFA40B1FB
:102B70008AA01CF043FE08B00120BDE8F04100F03F
:102B80005DBC904D0126AE708FA01CF037FE002179
:102B90000020934B04AF00241A5C3A2A01D07A54E7
:102BA000491C7C54401C1128F6DB002002F036FB47
:102BB000002033F0ABF828B18AA01CF01FFE0420DF
:102BC00000F03CFC91A01CF019FE686840B996A08A
:102BD0001CF014FE9D481CF011FE042000F02EFC99
:102BE0009B4968680BF0A4FE286250B199A01CF0C4
:102BF00005FE039603AA9FA1286A0CF02BFA68B180
:102C00000FE09FA01CF0FAFDA6A01CF0F7FDB54850
:102C10001CF0F4FD042000F011FCEAE7B2A01CF067
:102C2000EDFDBA49BAA003F0E9FFBCA11BF00CF816
:102C30000023A822B54903F051FDE86150B1BAA0C4
:102C40001CF0DCFD01211020FDF735FEE96948602C
:102C500038B10FE0BBA01CF0D1FD042000F0EEFB6A
:102C6000F0E740F26932C0A1C7A01CF0C7FD0920FF
:102C700000F0E4FB01211020FDF71DFEE969C1F819
:102C80009C0040B94FF45C72B7A1BFA01CF0B6FD28
:102C9000092000F0D3FB01214020FDF70CFEE9697B
:102CA000C1F8A40040B940F27732AFA1B6A01CF041
:102CB000A5FD092000F0C2FB01211020FDF7FBFD5E
:102CC000E969086440B940F27E32A7A1AEA01CF0C9
:102CD00095FD092000F0B2FBE869B6A2B8A1006C2E
:102CE0001CF0B4FDE869B74990304160B649016015
:102CF0003221B6A20091CDE9011240693323B5A279
:102D0000B7A11CF0A3FDE86904AAADA140681CF0BE
:102D10009DFDB8484FF4FA61EA69806CB0FBF1F0B0
:102D2000C2F898000220C2F8A000B349286A0CF04B
:102D30005AF930B1B1A01CF061FD042000F07EFB17
:102D400002E0BDA01CF05AFDD5E90720C7490CF0F0
:102D5000F7F830B1C6A01CF051FD042000F06EFB66
:102D600002E0D3A01CF04AFD684ADFA1121D286AC8
:102D70000CF070F930B1E0A01CF040FD042000F030
:102D80005DFB02E0ECA01CF039FDD5E90720F84915
:102D90000CF00EF900B1EDE1F3E100004661696C61
:102DA000656420746F20696E697469616C697A6505
:102DB0002074686520706C6174666F726D2E0D0AE8
:102DC0000000000010000020506C6174666F726D8E
:102DD00020496E697420446F6E650D0A0000000082
:102DE000741E00204572723A20556E61626C652037
:102DF000746F20496E697469616C697A65205365E6
:102E00007269616C697A65720D0A000053657269B6
:102E1000616C697A657220496E697469616C697A5E
:102E200065640D0A000000004572723A20636F6EFF
:102E30006E656374696F6E537472696E672069732F
:102E4000204E554C4C210D0A00000000542A040865
:102E50008DA90108696F74487562436C69656E7469
:102E600048616E646C6520437265617465640D0A27
:102E7000000000006C6F6774726163650000000001
:102E80004572723A20696F74487562436C69656E69
:102E90007448616E646C65206973204E554C4C21FA
:102EA0000D0A0000095265737461727420746865BC
:102EB00020626F61726420616E64207365742063A8
:102EC0006F6E6E656374696F6E7320737472696E72
:102ED0006721210D0A092A2A204F52202A2A0A0D89
:102EE00000000000A82A0408696F74487562436CEA
:102EF00069656E745365744F7074696F6E206C6F82
:102F0000677472616365204F6B0D0A00C8C90308BE
:102F1000417A7572654D6F64656C0000417A757217
:102F200065315F74000000004D6F64656C20496E70
:102F30007374616E636520437265617465640D0A24
:102F4000000000004572723A204372656174696E38
:102F50006720746865204D6F64656C20496E7374DA
:102F6000616E63650D0A00002E2E5C2E2E5C53727E
:102F7000635C417A757265436C69656E745F6D71EF
:102F800074745F544D2E630045727220416C6C6FF7
:102F9000636174696E67206D656D6F72790D0A09E2
:102FA00046696C65202573204C696E652025640D8B
:102FB0000A000000556E6B6E6F77656400000000BC
:102FC00025730000B42C04084C2B0408312E312E3C
:102FD00031360000417A7572655F444D0000000093
:102FE0002573205625632E25632E25632053444BDD
:102FF0003D257300E81D002035BC01084572723A7A
:1030000020496F54487562436C69656E745F4C4C1F
:103010005F5365744D65737361676543616C6C6282
:1030200061636B2E2E2E2E2E2E2E2E2E2E464149D5
:103030004C4544210D0A0000496F54487562436CA9
:1030400069656E745F4C4C5F5365744D6573736155
:10305000676543616C6C6261636B2E2E2E737563C2
:103060006365737366756C2E0D0A0000A51902085E
:103070004572723A20496F54487562436C69656EB7
:10308000745F4C4C5F5365744465766963654D6548
:1030900074686F6443616C6C6261636B2E2E2E2EBC
:1030A0002E2E2E2E2E2E4641494C4544210D0A002F
:1030B000496F54487562436C69656E745F4C4C5F30
:1030C0005365744465766963654D6574686F6443E0
:1030D000616C6C6261636B2E2E2E73756363657316
:1030E0007366756C2E0D0A005472757374656443B3
:1030F00065727473000000004572723A20496F5483
:10310000487562436C69656E745F4C4C5F536574BF
:103110004F7074696F6E2863657274696669636164
:10312000746573292E2E2E2E2E2E2E2E2E2E4641D7
:10313000494C4544210D0A00496F54487562436C5F
:1031400069656E745F4C4C5F5365744F7074696F42
:103150006E28636572746966696361746573292E8C
:103160002E2E7375636365737366756C2E0D0A007E
:10317000A98C000863A01CF041FB042000F05EF95C
:1031800009E070A01CF03AFB05E0286A0BF0A6FDF0
:10319000642007F086FAA8690028F6D0002002F023
:1031A0002FF8E869C4631BF02BFB002018F0B2FD78
:1031B000724E734FDFF8CC8171E0306878B317F04E
:1031C000F9FA346058B3E969D1F8A020082A44D24A
:1031D000DFE802F0430406060606060FC8633CE07B
:1031E000694B921E53F82200401C43F82200C8632A
:1031F00033E007282FD2DFE800F02E040B131A214A
:103200002800086C61A2AFF248211CF01FFB22E0ED
:10321000086C5FA2AFF258211CF018FB1BE01CE009
:10322000086C5DA2AFF268211CF010FB13E0086C83
:103230005BA2AFF274211CF009FB0CE0086C5AA2EF
:10324000AFF284211CF002FB05E0086C57A2AFF23C
:1032500090211CF0FBFA1AF0D7FE386810B103F089
:10326000F7F83C60D8F8000048B1C8F8004068782A
:10327000022802D1002001F0DFFF1BF0EFF82878D0
:1032800050B12C70012018F045FD1CF09BFA49A0AC
:103290001CF0B4FA08F072FA286A0BF01FFDA87847
:1032A00000288AD11BF0E0FA4AA01CF0A7FA0220FD
:1032B00018F030FD1CF086FAE86940681CF00CFB41
:1032C000E869D0F89C001CF007FBE869D0F8A4007E
:1032D0001CF002FBE869006C1CF0FEFAE86903F0E0
:1032E00089FA286A0BF074FC47A01CF087FA32F0C8
:1032F00001FD30F0E9FE4CA01CF080FA08B0BDE8FA
:10330000F08100004572723A20496F54487562435B
:103310006C69656E745F4C4C5F5365744465766987
:1033200063655477696E43616C6C6261636B2E2ECA
:103330002E2E2E2E2E2E2E2E4641494C4544210D4A
:103340000A000000496F54487562436C69656E74E9
:103350005F4C4C5F53657444657669636554776967
:103360006E43616C6C6261636B2E2E2E73756363AA
:1033700065737366756C2E0D0A0000004C0000200A
:1033800048000020500000209C0D0020546F700069
:103390004C65667400000000426F74746F6D00002D
:1033A000526967687400000055700000446F776EC2
:1033B0000000000043616C6C20746F2048414C5F3A
:1033C0004E5649435F53797374656D5265736574E6
:1033D0000D0A0000696F746875625F636C69656EE1
:1033E000745F73616D706C655F6D7174742068617A
:1033F0007320676F7474656E2071756974206D65D4
:1034000073736167650D0A00696F74487562436C78
:1034100069656E7448616E646C652044657374728E
:103420006F6965640D0A0000506C6174666F726D9F
:10343000204465496E69740D0A000000054628465F
:10344000FEF7C2FC014611A01CF0D8F913A01CF035
:10345000D5F9002001F0D4FE4FF4C8764FF47A6716
:1034600000240CE0002001F0D9FEC82007F019F973
:10347000002001F0C5FE304607F013F9641CAC4291
:10348000F0DB384607F00DF9EAE700000D0A457257
:103490007220547970652025730D0A00094E65630A
:1034A00065737369747920746F20726573746172C7
:1034B000742074686520426F6172640D0A00000018
:1034C0002DE9F04786B00025374C206840F0010018
:1034D0002060206800F001000090DFF8D0904FF4E9
:1034E000807800224146484607F00FFBCDF8048063
:1034F0000126029603950327049701A9484607F081
:103500002DFA206840F002002060206800F00200E0
:103510000090DFF89CA000224021504607F0F5FA09
:103520004020019002960395049701A9504607F0A8
:1035300015FA206840F001002060206800F00100CA
:10354000009000228021484607F0DFFA8020019099
:1035500002960395049701A9484607F0FFF916481B
:10356000144C04604FF4E13141608560C560056131
:10357000C0F818800C214161C56109F0B8F808B1A4
:1035800000F01CF80C4809F0CBF808B100F016F870
:10359000E06840F02000E060606940F00100606198
:1035A00006B0BDE8F087000030380240000002405D
:1035B000000402400010014018A90020002001F082
:1035C0002DFE4FF47A74002001F036FE204607F0FD
:1035D00068F8F8E710B50E4842F210710068B0FBC9
:1035E000F1F10C48491E01600C480B4A02600922A7
:1035F000C260416000210161816008F06DFE08B188
:10360000FFF7DCFFBDE81040044808F09DBE000055
:10361000840000207C0D002000040040DCA8002075
:103620000348C078202801D000207047012070474F
:10363000240D002070B594B09D4C002541F28836D1
:10364000E178222916D2DFE801F01715119A461504
:10365000212B3539155315F38CA1AEDAD01515E4AD
:10366000F415151515151515F11515F091A01CF08B
:10367000C5F8E57014B070BDA563002191A037F0C6
:1036800059FE0621002000F023FCF3E7A56300218A
:103690008EA037F04FFE0721002000F019FCE9E76B
:1036A000A56300218BA037F045FE0821002000F023
:1036B0000FFCDFE7E6630920E070DBE7E06B002842
:1036C000D8D1A563002186A037F034FE0421002064
:1036D00000F0FEFBCEE7A563002184A037F02AFEB0
:1036E0004FF4FA60E0630B21002000F0F1FBC1E72A
:1036F000E16B0029BED1804A135C302B00D0012140
:10370000401C135C002BF7D10C28F5D809B3A56336
:1037100050216846FDF756F80A2278A16846FDF761
:103720002AF875496846FDF758F877A16846FDF70D
:1037300054F8694675A01CF061F86846FDF781F8F9
:1037400081B2684637F0F6FD0E21002000F0C0FB84
:1037500090E774A01CF052F8E6630F20E07020712F
:1037600088E77A48A0637AA01CF048F800215CA0A2
:1037700037F0E0FD0321002000F0AAFB7AE7A56303
:10378000E6630F21002000F0A3FB73E7E06B002845
:1037900085D1A563002173A037F0CCFD1021002056
:1037A00000F096FB66E7A56371A01CF027F8502196
:1037B0006846FDF707F80F2273A16846FCF7DBFFA8
:1037C0004D4968461B31FDF708F873A16846FDF7BF
:1037D00004F86846FDF735F881B2684637F0AAFD6F
:1037E0001221002000F074FB44E7A56300216DA0C6
:1037F00037F0A0FD1121002000F06AFB3AE7A56335
:1038000000216CA037F096FD1521002000F060FB30
:1038100030E74E48401FA063002169A037F08AFDC1
:103820001621002000F054FB24E71CE00DE000E02E
:1038300014E0A56330480F2264490C30FCF79BFF6D
:103840001E21002000F044FB14E72025E57060A055
:103850001BF0D4FF20F042FE25710BE72121002050
:1038600000F036FB06E7002000F078F90D25072868
:1038700084D2DFE800F0040B05130E041100F9E612
:10388000A06B00288ED12079E070F3E62079E070FB
:10389000F0E656A01BF0B2FFE570EBE620790428B5
:1038A00004D05EA01BF0AAFFE570E3E6E070E1E65D
:1038B000240D0020205B424739365D205265736538
:1038C000740D0A00415426460D0A0000415445304B
:1038D0000D0A000041542B4346554E3D300D0A0061
:1038E00041542B4350494E3F0D0A000041542B4395
:1038F00046554E3D310D0A00E046002041542B4311
:1039000050494E3D000000000D000000205B424782
:1039100039365D2073656E642050494E2025730A48
:1039200000000000205B424739365D2053494D209E
:1039300050494E203D20302C206E6F7468696E67B0
:1039400020746F2073656E640D0A00004E28040811
:10395000205B424739365D20576169742050494EDB
:103960000D0A000041542B434F50533F0D0A0000F5
:10397000205B424739365D207365742041504E20EC
:1039800026204143540D0A0041542B5149435347CB
:10399000503D312C312C2200222C22222C22222C90
:1039A000310D000041542B51494143543D310D0A22
:1039B0000000000041542B51494143543F0D0A007F
:1039C00041542B4347534E0D00000000B4780020B3
:1039D000205B424739365D204D6F64756C652072FF
:1039E0006561647921210D0A00000000205B4247D7
:1039F00039365D204552524F5220647572696E67A8
:103A000020636F6E6669672C20636865636B207343
:103A1000657474696E67730D0A000000205B42478D
:103A200039365D20434D45206F7220434D5320456C
:103A300052524F5220647572696E6720636F6E66D2
:103A400069672C20636865636B2073657474696EA5
:103A500067730D0A0000000010B5244C617A092933
:103A600012D2DFE801F00527303911111D110500D0
:103A700058B100F06BF800F073F900F0D1FC4FF48E
:103A80009670E0630620607210BD00F0C1FC00F08B
:103A90005FF900F053F86420E0630320607210BD0A
:103AA000E06B0028FBD100F053F93220E0630120E5
:103AB000607210BDE06B0028FBD141F28830E063FA
:103AC0000220607210BDE06B0028FBD108A01BF043
:103AD00095FE0820607210BDE06B0028FBD160727B
:103AE000BDE8104008A01BF089BE0000240D002096
:103AF0000D0A205B424739365D20706F7765722072
:103B00006F6E21210D0A00000D0A205B42473936F5
:103B10005D20706F776572206F666621210D0A0047
:103B200010B50548407A082804D00120FFF794FF1B
:103B3000002010BD012010BD240D002000224021D6
:103B4000014806F0E2BF00000004024001224021CB
:103B5000014806F0DABF0000000402402DE9F047FA
:103B60000A255C4F4FF0000887F80280F8694FF093
:103B7000010900281BD0252007F0B7FD3C6B25204C
:103B800007F0BEFD7E6BA64275D000244FF4805A2C
:103B900051465148FCF716FE504850F8262050492F
:103BA0004D4E885C3055544509D2641C08E0386A93
:103BB000401C386287F806900620BDE8F087002098
:103BC000521CC2F30B020028EBD146A14248FCF77D
:103BD0003FFE022C6DD900286BD0052242A13E4841
:103BE000FCF744FE60B1142241A13B48FCF73EFEC5
:103BF00040B1B96B09B30024085D28B1641CFBE730
:103C000004251AE0042518E022463348FCF72EFE6E
:103C100098B90125C7F82C8051463B48FCF7D2FDE6
:103C200039492A02F86A335D0B54641C401CF8625F
:103C3000904202D8305D0028F4D134A12648FCF728
:103C400007FEC8B10B2233A12348FCF70FFEA8B131
:103C50000B2233A12048FCF709FE78B1112233A1D1
:103C60001D48FCF703FE58B10F2235A11A48FCF796
:103C7000FDFD60B111E02AE002250EE003250CE015
:103C8000082515481130FCF7DAFFF87105E0092521
:103C900011480F30FCF7D3FF3872252007F025FDBF
:103CA0003C6B252007F02CFD786BA04201D087F8F3
:103CB0000290252007F019FD786B401C6421B0FBB1
:103CC000F1F201FB12007863252007F019FD284668
:103CD00073E70000240D0020B45800202457002072
:103CE000234700200D0A00004552524F52000000A9
:103CF0002B51495552433A202270647064656163C8
:103D000074222C3100000000B47800204F4B0D0AC3
:103D1000000000002B434D45204552524F523A00BF
:103D20002B434D53204552524F523A002B51495587
:103D300052433A2022636C6F736564222C000000AA
:103D40002B51495552433A202272656376222C004A
:103D500000224FF48071014806F0D7BE00000240F7
:103D600001221102014806F0D0BE0000000002400E
:103D70002DE9F04FDFF834814B4AB8F81810505451
:103D8000491CC1F30B01A8F81810D8F82810A2F5A7
:103D900000525054491CC1F30B01C8F82810444F7D
:103DA000B8F816107854491CC1F30B01A8F8161086
:103DB0004646DFF80091336B756B746A5A1C36788F
:103DC0004FF0640A4FF0010C4FF0000B0A2832D07C
:103DD0000D2809D020284BD03E2846D088F805B0C1
:103DE00088F800B0BDE8F08F082E1FD1881E4FEA7A
:103DF000E07E00EB1E5E6FF30B0EA0EB0E0007F8EB
:103E000000B049F82340B2FBFAF00AFB1020C8F8D2
:103E10003000A84201D188F801C0491EC81701EB43
:103E200010506FF30B00081AC8F8240046F0080081
:103E300088F80000D6E7082E14D107F801B0491C15
:103E4000C1F30B00A8F8160049F82340B2FBFAF1C1
:103E50000AFB1121C8F83010A94201D188F801C02D
:103E6000C8F8240088F800B0BCE788F805C0B9E7B6
:103E700098F805000028B5D088F805B007F801B01B
:103E8000491CC1F30B00A8F8160049F82340B2FB07
:103E9000FAF10AFB1121C8F83010A94201D188F8C3
:103EA00001C0C8F824009DE7B4880020240D00203C
:103EB000234700202457002010B50C4600F082FA5A
:103EC00002480422C272047310BD0000240D0020B9
:103ED00010B50C4600F076FA02482122C270047137
:103EE00010BD0000240D00202DE9F04FC3B0804626
:103EF000894692469B460125354CE07A002803D03E
:103F0000284643B0BDE8F08F3148E37C0022807A38
:103F10000126042700F0FD01072B57D2DFE803F04C
:103F200004072A563B333800A172E6744EE040F095
:103F30000200A072A2634FF48076314603A8FCF71A
:103F400041FCCDE900A85B4622A2314603A8CDF88A
:103F500008901BF063FC03A8FCF773FC81B203A874
:103F600037F0E8F942F2107000F02CFAE774022002
:103F700020752BE02048A063002000F023FAE774AE
:103F80000520207522E00225A172E27422751DE051
:103F9000E27403251AE00020FFF7E0FD0A2815D29D
:103FA000DFE800F0140A0514111411140D0FA06BB2
:103FB00060B9207DE07409E0207DE07406E0A6731E
:103FC00004E0667302E00620E0742075284698E756
:103FD000240D002041542B51494F50454E3D312C6A
:103FE00025642C222573222C222573222C25642C57
:103FF000302C300D0000000067280408014A012120
:1040000011547047740D00200220704710B51C46F3
:104010000123237000F00EF808B1002010BD01202C
:1040200010BD00F0AFB90000014A002111547047E3
:10403000740D00202DE9F04105460E46184607464E
:104040001078742814D0752810D00BA43B46224653
:1040500031462846FFF748FF0128F7D0032809D04A
:104060003846FFF7CBFF0120BDE8F08103A4EDE760
:1040700001A4EBE70020F7E75443500055445000FB
:104080002DE9F047FFF7CCFA60B1624D286C401C77
:1040900028640A270024A87A002628B1EE72384640
:1040A000BDE8F0870420FBE7E87A4FF0070A4FF0FD
:1040B00002084FF4805909280CD2DFE800F005A867
:1040C00025A87B3A78192300A87B20B1AE736E73C4
:1040D00085F80BA09BE0687B20B16E73AE6485F819
:1040E0000B8094E0AE6302210520FFF7E5FE8EE031
:1040F000AE63002148A037F01DF908210020FFF72A
:10410000DBFE84E0EE7282E0AE63252007F0EDFA7C
:10411000AE6249464448FCF755FB252007F0F0FA0B
:10412000002142A037F006F905210020FFF7C4FE68
:104130006DE0384A3C4844323FA10930FCF7DAFBD5
:104140003E49287C6A6C21F81020401C1421B0FBE9
:10415000F1F301FB130028740AB1334B14E0AB6C8C
:1041600037491A46012020F0EBF9AE64EE722E7347
:104170004DE00A34A86C8118E964494509D9EE720A
:104180000120E87343E0641C1819407A0A28FAD128
:10419000EFE719192A4B1844FCF7EDFAD5E911108D
:1041A0000844A86485F80B8085F80C802FE0EE7237
:1041B0006E642CE00020FFF7D1FC07460B2F26D2BF
:1041C000DFE807F0250B06250E250E25111A210024
:1041D000A86BE0B9287BE87219E0287BE87216E04A
:1041E0000620E87213E0174820F090F90120FFF74D
:1041F0001BFF85F80BA00AE0287B022807D185F871
:104200000B80AE6403E0287B022800D1EE723846B2
:1042100046E70000240D002041542B5149434C4FE8
:1042200053453D310D0A0000B468002041542B5124
:104230004952443D310D0A0025750000B4A8002004
:10424000B4980020482804082DE9F04F89B0824630
:104250000F4601253A4CE07A002803D0284609B0E1
:10426000BDE8F08F364894F811C00023807A01260B
:104270004FF004084FF0030900F0FE01BCF1060FF7
:104280005CD2DFE80CF00306253D343A6674A17277
:1042900054E040F00100A0722A48A063202101A848
:1042A000FCF790FA3B46524627A101A81BF0CEFA34
:1042B00001A8FCF7C6FA81B201A837F03BF842F238
:1042C000107000F07FF884F811900220A07435E09F
:1042D0001C481230A063B9B2104637F02BF800200A
:1042E00000F070F884F8119084F8128026E002251E
:1042F000A172637484F8128020E0637403251DE0CA
:104300000020FFF72BFC0A2818D2DFE800F0170A7C
:104310000517111711170D0FA06B78B9A07C6074E9
:104320000CE0A07C607409E0A67307E0667305E00A
:104330000AA01BF063FA05206074A07428468EE77B
:10434000240D00204B28040841542B514953454E5D
:10435000443D25642C25640D0A000000205B424783
:1043600039365D204552524F522C206170706C6975
:10437000636174696F6E2073746F707321210D0A0D
:104380000000000070B505460C4616460C48405D1E
:1043900000280ED0B4F57F7F0DD864B13246214697
:1043A0002846FFF751FF0128F8D0032805D0002048
:1043B00070BD052070BD042070BD0D2070BD0000D3
:1043C000740D00200349002801D0C86170470248DD
:1043D000C8617047240D0020905F01000648C16B42
:1043E000002902D0C16B491EC163C16911B1C16905
:1043F000491EC161FFF744BE240D00200A46014654
:104400004FF0FF33014808F0D4BA000018A900208B
:1044100000228021014806F078BB00000000024025
:1044200001228021014806F070BB0000000002401C
:10443000002806D0016931B10278692A05D001202F
:1044400070470120704701207047496F01B108474C
:1044500001207047002806D0016931B102786A2A2C
:1044600005D0012070470120704701207047496F37
:1044700001B1084701207047002806D0016931B119
:104480000278692A05D00120704701207047012079
:104490007047896D01B1084701207047002806D098
:1044A000016931B102786A2A05D0012070470120E4
:1044B000704701207047896D01B10847012070479E
:1044C000002806D0016931B10278692A05D001209F
:1044D00070470120704701207047496801B10847C3
:1044E00001207047002806D0016931B102786A2A9C
:1044F00005D00120704701207047012070474968AE
:1045000001B1084701207047002806D0016931B188
:104510000278692A05D001207047012070470120E8
:104520007047496901B1084701207047002806D04B
:10453000016931B102786A2A05D001207047012053
:10454000704701207047496901B108470120704751
:10455000002806D0016931B10278692A05D001200E
:1045600070470120704701207047C96C01B10847AE
:1045700001207047002806D0016931B102786A2A0B
:1045800005D0012070470120704701207047C96C99
:1045900001B1084701207047002806D0016931B1F8
:1045A0000278692A05D00120704701207047012058
:1045B0007047096B01B1084701207047002806D0F9
:1045C000016931B102786A2A05D0012070470120C3
:1045D000704701207047096B01B1084701207047FF
:1045E000002806D0016931B10278692A05D001207E
:1045F00070470120704701207047C96B01B108471F
:1046000001207047002806D0016931B102786A2A7A
:1046100005D0012070470120704701207047C96B09
:1046200001B1084701207047002806D0026932B165
:104630000378692B05D001207047012070470120C5
:104640007047126F02B1104701207047002806D052
:10465000026932B103786A2B05D00120704701202E
:10466000704701207047126F02B110470120704758
:10467000002806D0026932B10378692B05D00120E9
:1046800070470120704701207047526D02B11047FA
:1046900001207047002806D0026932B103786A2BE6
:1046A00005D0012070470120704701207047526DEE
:1046B00002B1104701207047002806D0026932B1CC
:1046C0000378692B05D00120704701207047012035
:1046D0007047126802B1104701207047002806D0C9
:1046E000026932B103786A2B05D00120704701209E
:1046F000704701207047126802B1104701207047CF
:10470000002806D0016931B10278692A05D001205C
:1047100070470120704701207047096901B10847BF
:1047200001207047002806D0016931B102786A2A59
:1047300005D00120704701207047012070470969AA
:1047400001B1084701207047002806D0026932B144
:104750000378692B05D001207047012070470120A4
:104760007047926C02B1104701207047002806D0B4
:10477000026932B103786A2B05D00120704701200D
:10478000704701207047926C02B1104701207047BA
:10479000002806D0026932B10378692B05D00120C8
:1047A00070470120704701207047D26A02B110475C
:1047B00001207047002806D0026932B103786A2BC5
:1047C00005D0012070470120704701207047D26A50
:1047D00002B1104701207047002806D0026932B1AB
:1047E0000378692B05D00120704701207047012014
:1047F0007047926B02B1104701207047002806D025
:10480000026932B103786A2B05D00120704701207C
:10481000704701207047926B02B11047012070472A
:10482000002807D002693AB141B10378692B07D05B
:104830000120704701207047012070470120704718
:10484000D2F8802002B1104701207047002807D01D
:1048500002693AB141B103786A2B07D00120704751
:10486000012070470120704701207047D2F8802056
:1048700002B1104701207047002807D002693AB101
:1048800041B10378692B07D00120704701207047A0
:104890000120704701207047D26F02B110470120FC
:1048A0007047002807D002693AB141B103786A2BFA
:1048B00007D0012070470120704701207047012078
:1048C0007047D26F02B1104701207047002807D00F
:1048D00002693AB141B10378692B07D001207047D2
:1048E000012070470120704701207047D2F88820CE
:1048F00002B1104701207047002807D002693AB181
:1049000041B103786A2B07D001207047012070471E
:104910000120704701207047D2F8882002B110476B
:1049200001207047002807D002693AB141B10378ED
:10493000692B07D001207047012070470120704784
:1049400001207047D2F8842002B11047012070473F
:10495000002807D002693AB141B103786A2B07D029
:1049600001207047012070470120704701207047E7
:10497000D2F8842002B1104701207047002807D0E8
:1049800002693AB141B10378692B07D00120704721
:10499000012070470120704701207047D2F8902015
:1049A00002B1104701207047002807D002693AB1D0
:1049B00041B103786A2B07D001207047012070476E
:1049C0000120704701207047D2F8902002B11047B3
:1049D00001207047002807D002693AB141B103783D
:1049E000692B07D0012070470120704701207047D4
:1049F00001207047D2F88C2002B110470120704787
:104A0000002807D002693AB141B103786A2B07D078
:104A10000120704701207047012070470120704736
:104A2000D2F88C2002B110470120704710B5002841
:104A300008D0C26841B1926942B19047012807D0BD
:104A4000002010BD012010BD012010BD012010BDAF
:104A5000012010BD10B5002808D0C26841B192698C
:104A600042B19047012807D0002010BD012010BDA1
:104A7000012010BD012010BD012010BD002807D06D
:104A800002693AB141B10378692B07D00120704720
:104A9000012070470120704701207047D2F8942010
:104AA00002B1104701207047002807D002693AB1CF
:104AB00041B103786A2B07D001207047012070476D
:104AC0000120704701207047D2F8942002B11047AE
:104AD0000120704710B5002808D0C26841B1526A61
:104AE00042B19047012807D0002010BD012010BD21
:104AF000012010BD012010BD012010BD10B50028FF
:104B000008D0C26841B1526A42B19047012807D02B
:104B1000002010BD012010BD012010BD012010BDDE
:104B2000012010BD002807D002693AB141B10378D5
:104B3000692B07D001207047012070470120704782
:104B400001207047D26902B1104701207047002848
:104B500007D002693AB141B103786A2B07D001202E
:104B60007047012070470120704701207047D269CB
:104B700002B110470120704710B5002807D0C26865
:104B8000126932B19047012805D0002010BD0120E4
:104B900010BD012010BD012010BD10B50C46002233
:104BA000226002280CD0032810D0204600F0B6FE68
:104BB000012810D1204600F021FE01280BD110BDA4
:104BC000204600F01BFE012805D110BD204600F054
:104BD000A5FE012801D0002010BD012010BD10B598
:104BE0000C460022226000280CD0012810D020465C
:104BF00000F024FF012810D1204600F073FD0128A9
:104C00000BD110BD204600F019FF012805D110BDC1
:104C1000204600F067FD012801D0002010BD0120D2
:104C200010BD10B5002807D0C168896831B1884728
:104C3000012805D0002010BD012010BD012010BDAD
:104C4000012010BD10B5002807D0C168896831B1B6
:104C50008847012805D0002010BD012010BD01208B
:104C600010BD012010BD10B5002807D0C168896BA8
:104C700031B18847012805D0002010BD012010BDAA
:104C8000012010BD012010BD10B5002807D0C1685B
:104C9000896B31B18847012805D0002010BD012063
:104CA00010BD012010BD012010BD002806D00269F2
:104CB00032B10378692B05D001207047012070477D
:104CC00001207047D26802B11047012070470028C8
:104CD00006D0026932B103786A2B05D001207047F3
:104CE0000120704701207047D26802B110470120AF
:104CF000704710B5002807D0C168C96A31B188472C
:104D0000012805D0002010BD012010BD012010BDDC
:104D1000012010BD10B5002807D0C168C96A31B1A3
:104D20008847012805D0002010BD012010BD0120BA
:104D300010BD012010BD002806D0026932B10378F1
:104D4000692B05D001207047012070470120704772
:104D5000126E02B1104701207047002806D0026988
:104D600032B103786A2B05D00120704701207047CB
:104D700001207047126E02B110470120704710B534
:104D8000002808D0C26841B1926942B19047012819
:104D900007D0002010BD012010BD012010BD012052
:104DA00010BD012010BD10B5002808D0C26841B167
:104DB000926942B19047012807D0002010BD012020
:104DC00010BD012010BD012010BD012010BD10B587
:104DD0000C460022226000280CD0012810D020466A
:104DE00000F0E6FD012810D1204600F053FD012817
:104DF0000BD110BD204600F04DFD012805D110BD9E
:104E0000204600F0D5FD012801D0002010BD012072
:104E100010BD10B50246084600210160022A04D0E8
:104E200000F054FE012804D110BD00F04FFE01280F
:104E300001D0002010BD012010BD10B5002807D002
:104E4000C168896831B18847012805D0002010BDAC
:104E5000012010BD012010BD012010BD10B500289B
:104E600007D0C168896831B18847012805D0002082
:104E700010BD012010BD012010BD012010BD00009B
:104E800070B505461B4C6079012822D019F000FC52
:104E9000012820D0BC20207000266670BE20A070A3
:104EA00026716671A6710120E0711348A060134954
:104EB000E1602661011F124A0A60016046602046D7
:104EC0002C60E168096841B1884701280BD00020B7
:104ED00070BD012070BD012070BD1421FBF772FC74
:104EE0002E60012070BD14212868FBF76BFC2E603A
:104EF000012070BDF42200207007002088000020EF
:104F0000F000002070B505461B4C6079012822D0C6
:104F100019F0C6FB012820D0BC2020700026667046
:104F2000BE20A07026716671A6710120E071134841
:104F3000A0601349E1602661011F124A0A60016006
:104F4000466020462C60E168096841B18847012825
:104F50000BD0002070BD012070BD012070BD142158
:104F6000FBF730FC2E60012070BD14212868FBF790
:104F700029FC2E60012070BD3C240020A8070020E1
:104F800088000020F000002070B505461C4C6079B8
:104F9000012823D019F07CFB012821D0BC202070EF
:104FA00000266670BE20A07026716671A671012071
:104FB000E07104F15000A0601249E16026611349DC
:104FC000114A0A600160466020462C60E168096869
:104FD00041B1884701280BD0002070BD012070BD71
:104FE000012070BD1421FBF7EDFB2E60012070BD88
:104FF00014212868FBF7E6FB2E60012070BD00003D
:1050000008230020BC000020F000002078070020CA
:1050100070B505461C4C6079012823D019F040FB7F
:10502000012821D0BC20207000266670BE20A07010
:1050300026716671A6710120E07104F15000A06034
:105040001249E16026611349114A0A600160466015
:1050500020462C60E168096841B1884701280BD0DF
:10506000002070BD012070BD012070BD1421FBF730
:10507000A9FB2E60012070BD14212868FBF7A2FB5C
:105080002E60012070BD0000DC240020BC00002048
:10509000F0000020B807002010B5002808D0C26832
:1050A00041B1926942B19047012807D0002010BD5C
:1050B000012010BD012010BD012010BD012010BD38
:1050C00010B5002808D0C26841B1926942B190473A
:1050D000012807D0002010BD012010BD012010BD07
:1050E000012010BD012010BD10B502460846002168
:1050F0000160002A04D0FFF7C3FE012804D110BDCF
:10510000FFF7BEFE012801D0002010BD012010BD18
:1051100010B50246084600210160002A04D0FFF7BE
:10512000F1FE012804D110BDFFF7ECFE012801D0EB
:10513000002010BD012010BD002804D029B1407905
:105140000870002070470120704701207047002838
:1051500004D029B1407908700020704701207047C1
:105160000120704710B5002807D0C168896831B1A7
:105170008847012805D0002010BD012010BD012066
:1051800010BD012010BD10B5002807D0C168896886
:1051900031B18847012805D0002010BD012010BD85
:1051A000012010BD012010BD70B586B0044600215D
:1051B0001048026842F001020260006800F001003D
:1051C00000900D4D35F814000190012002900391DC
:1051D00002200490094E01A956F8240005F0BEFBF8
:1051E00035F8141056F82400002205F08EFC06B0A5
:1051F00070BD00003038024032EC0308E80900209E
:105200000449054A31F8101052F82000002205F038
:105210007CBC000032EC0308E80900200449054A80
:1052200031F8101052F82000012205F06EBC000089
:1052300032EC0308E80900200349044A31F8101051
:1052400052F8200005F05DBC32EC0308E8090020AC
:1052500070B506461A4C6079012820D019F018FA6A
:1052600001281ED03D202070002565703C20A070D4
:1052700025716571A571E57104F12800A0601149DF
:10528000E160256110490160456020463460E168B5
:10529000096841B1884701280BD0002070BD01206A
:1052A00070BD012070BD1421FBF78CFA3560012020
:1052B00070BD14213068FBF785FA3560012070BDA0
:1052C000A4210020F40000204607002070B5054608
:1052D000204C94F82D0001282AD019F0D9F9012882
:1052E00028D0B12004F8280F00266670B820A070DE
:1052F000022020716671A6710120E07115484C30C2
:10530000A0601548E06015482061164914480860FF
:1053100010483C300161466114382860C168096852
:1053200051B1884701280DD00BF036FC002070BD2C
:10533000012070BD012070BD1421FBF743FA2E60DF
:10534000012070BD14212868FBF73CFA2E60012073
:1053500070BD0000DC2100203C010020A4010020E1
:105360001C0200205007002070B50546204C94F820
:105370002D0001282AD019F093F9012828D0B12056
:1053800004F8280F00266670BA20A0700220207151
:105390006671A6710120E07115484C30A060154877
:1053A000E0601548206116491448086010483C30F8
:1053B0000161466114382860C168096851B18847A5
:1053C00001280DD00BF010FC002070BD012070BD35
:1053D000012070BD1421FBF7F5F92E60012070BD8E
:1053E00014212868FBF7EEF92E60012070BD000043
:1053F000882400203C010020A40100201C02002081
:10540000B407002070B50546204C94F841000128EF
:105410002AD019F03DF9012828D0B12004F83C0F1A
:1054200000266670B820A070032020716671A671F6
:105430000120E07115486830A0601548E06015480B
:105440002061164914480860104850308161C661D7
:1054500014382860C168096851B1884701280DD007
:105460000BF09AFB002070BD012070BD012070BDC3
:105470001421FBF7A7F92E60012070BD14212868C4
:10548000FBF7A0F92E60012070BD0000082300206A
:1054900070010020E00100201C0200208407002091
:1054A00070B50546204C94F8410001282AD019F027
:1054B000F7F8012828D0B12004F83C0F00266670C8
:1054C000BA20A070032020716671A6710120E071DE
:1054D00015486830A0601548E060154820611649FD
:1054E00014480860104850308161C6611438286043
:1054F000C168096851B1884701280DD00BF074FBD1
:10550000002070BD012070BD012070BD1421FBF78B
:1055100059F92E60012070BD14212868FBF752F95B
:105520002E60012070BD0000DC24002070010020EE
:10553000E00100201C020020BC0700202DE9F04102
:1055400007460C462C4D07EB870005EB80004079A1
:1055500001280DD019F09CF801280CD00121BD23A1
:10556000264A05F13C0000263FB1012F2ED116E05E
:105570000120BDE8F0810120FBE72B706E70BA239B
:10558000AB702E716E71AE71E971A860EA602E6128
:105590001C491B4A0A6001604660256016E02B75B5
:1055A0006E75B823AB7529766E76AE76E9761249BC
:1055B0004431E9612A626E62114A1249121D091DC5
:1055C0000A608160C6600C48143020602068C168A1
:1055D000096821B18847012807D00020C9E71421B4
:1055E000FBF7F0F826600120C3E714212068FBF7E1
:1055F000E9F826600120BCE7DC210020240200201D
:105600008C020020480700202DE9F04107460C4697
:10561000304D07EB870005EB8000407901280ED064
:1056200019F036F801280DD00121BD222A4B0026A1
:1056300005F15000012F07D0022F34D11AE00120CC
:10564000BDE8F0810120FBE72A756E75BA22AA75C4
:1056500029766E76AE76E9761E495831E9612B627D
:105660006E621F491D4A0A608160C6601948143085
:10567000206018E005F8282F6E70B822AA70022268
:105680002A716E71AE71E97112496031A960EB60E7
:105690002E61124A1249121D091D0A6001614661FC
:1056A0000C48283020602068C168096821B188470B
:1056B000012807D00020C3E71421FBF783F82660F8
:1056C0000120BDE714212068FBF77CF8266001204B
:1056D000B6E7000008230020580200208C020020BA
:1056E0007C07002070B505461D4C607E012826D041
:1056F00018F0D6FF012824D03320207500266675C7
:105700003220A075012020766676A676E07604F138
:105710005800E06113482062666214481249016033
:1057200004F150018860CE60A1F13C002860C1689E
:10573000096841B1884701280BD0002070BD0120C5
:1057400070BD012070BD1421FBF73CF82E600120D4
:1057500070BD14212868FBF735F82E60012070BD5C
:1057600078230020EC0400203C0500209407002052
:1057700070B505461D4C607E012826D018F090FFBC
:10578000012824D040202075002666753C20A07595
:10579000012020766676A676E07604F13000E0619E
:1057A00013482062666214481249016004F128011E
:1057B0008860CE60A1F114002860C168096841B119
:1057C000884701280BD0002070BD012070BD01204A
:1057D00070BD1421FAF7F6FF2E60012070BD142170
:1057E0002868FAF7EFFF2E60012070BD50240020DA
:1057F000400500203C050020B007002070B505469C
:10580000204C94F82D0001282AD018F041FF0128DF
:1058100028D0682004F8280F00266670D620A070D3
:10582000022020716671A6710120E0711548603078
:10583000A0601548E060266115481449416011498F
:10584000503108614E61A1F128002860C1680968E3
:1058500051B1884701280DD00DF0ABFF002070BD7D
:10586000012070BD012070BD1421FAF7ABFF2E603E
:10587000012070BD14212868FAF7A4FF2E600120D2
:1058800070BD00003022002094020020340300206C
:105890005807002070B505461C4C6079012823D0BC
:1058A00018F0F6FE012821D06820207000266670CE
:1058B000D620A07026716671A6710120E07104F1F6
:1058C0003C00A0601249E16026611349114A4A6018
:1058D0000160466020462C60E168096841B1884754
:1058E00001280BD0002070BD012070BD012070BDCB
:1058F0001421FAF767FF2E60012070BD142128687B
:10590000FAF760FF2E60012070BD0000A022002089
:10591000E4020020340300206407002070B505462F
:105920001F4C94F84100012828D018F0B1FE01283E
:1059300026D0692004F83C0F00266670D420A070A1
:10594000032020716671A6710120E071144868304F
:10595000A0601448E0601448206111481349503099
:105960008161C66114382860C168096851B18847EF
:1059700001280DD010F06EF9002070BD012070BD1F
:10598000012070BD1421FAF71DFF2E60012070BDAB
:1059900014212868FAF716FF2E60012070BD000060
:1059A000302200204C0400203C030020540700203B
:1059B00070B505461D4C607E012826D018F068FEA3
:1059C000012824D06920207500266675D420A07592
:1059D000012020766676A676E07604F14400E06148
:1059E000134820621348606204F13C001249816050
:1059F000C66028382860C168096851B18847012805
:105A00000DD010F027F9002070BD012070BD0120DD
:105A100070BD1421FAF7D6FE2E60012070BD14214E
:105A20002868FAF7CFFE2E60012070BDA02200206A
:105A30009C040020100400206007002070B505467B
:105A40001D4C6079012826D018F02AFE012824D0A8
:105A50006A20207000266670D620A07026716671BC
:105A6000A6710120E07104F15000A0601349E160CB
:105A7000134921611449134A0A60016046602046B7
:105A80002C60E168096851B1884701280DD013F0F6
:105A900033F8002070BD012070BD012070BD1421BD
:105AA000FAF790FE2E60012070BD14212868FAF7E5
:105AB00089FE2E60012070BD78230020980600200A
:105AC00088050020380700208C07002070B50546A7
:105AD000204C94F82D0001282AD018F0E1FD01286F
