:020000040800F2
:20000000284400203D0F0008190F00081B0F00081D0F00081F0F0008210F000800000000FC
:20002000000000000000000000000000230F0008250F000800000000270F0008290F0008CC
:20004000590F00085D0F0008610F0008650F0008690F00086D0F0008710F0008750F0008B0
:20006000790F00087D0F0008810F0008850F0008890F00088D0F0008910F0008950F000890
:20008000990F00089D0F0008A10F0008A50F0008A90F0008AD0F0008B10F0008B50F000870
:2000A000B90F0008BD0F0008C10F0008C50F0008C90F0008CD0F0008D10F0008D50F000850
:2000C000D90F0008DD0F0008E10F0008E50F0008E90F0008ED0F0008F10F0008F50F000830
:2000E000F90F0008FD0F00080110000805100008091000080D10000811100008151000080A
:20010000191000081D1000082110000825100008291000082D1000083110000835100008E7
:20012000391000083D1000084110000845100008491000084D1000085110000855100008C7
:20014000591000085D1000086110000865100008691000086D1000087110000875100008A7
:20016000791000087D1000088110000885100008891000088D100008911000080000000034
:2001800095100008991000082DE9F8430446DFF834562078DFF82466C00626D5B06810F033
:2001A0000C0F3AD13068800702D5A069002832D0306800074EBF30686868000900F0F001F2
:2001C000206A814206D200F0BBFA002823D100F0AAF905E000F0A7F9206A00F0B1FAD0B983
:2001E00000F057FAB26800F040FA2078C00767D500F095F9082808D000F091F90C2802BFEA
:20020000F06800F0030003282AD13068800357D56068002854D101207CE1A06900283068CA
:2002200010D040F0010000F077F907463068800705D400F0DBFAC01B0328F7D367E100F03B
:2002400072F9D2E74008400000F066F9074630688007CAD500F0CAFAC01B0328F7D356E1DD
:200260006068B0F5803F06D0B0F5A02F306806D140F480203060306840F4803005E020F4C0
:2002800080303060306820F480203060606858B100F0ACFA07463068800311D400F0A6FAFE
:2002A000C01B6528F7D332E100F0A0FA07463068800305D500F09AFAC01B6528F7D326E170
:2002C0002078800719D500F02AF9042808D000F026F90C2802BFF06800F00300022822D18E
:2002E0003068400502D5E068002894D07068216920F0F85040EA016070602078000741D5AC
:200300006069002868682ED040F00100686000F06DFA07466868800734D400F067FAC01BF6
:200320000328F7D3F3E0E068002830680DD040F4807000F0F1F8074630684005D6D400F04F
:2003400055FAC01B0328F7D3E1E020F4807000F0E3F8074630684005CFD500F047FAC01B14
:200360000328F7D3D3E040084000686000F03EFA07466868800705D500F038FAC01B0328B7
:20038000F7D3C4E0207840075FD5B06DC0004FF000080AD4B06D40F08050B0654FF0010860
:2003A000B06D00F0805000900098DFF81C94D9F80000C00512D4D9F8000040F48070C9F87F
:2003C000000000F013FA0746D9F80000C00505D400F00CFAC01B0328F6D398E0A0680128F6
:2003E00005D00528286806D140F004002860286840F0010005E0400840002860286820F082
:200400000400286041F28939A06858B100F0EEF907462868800711D400F0E8F9C01B4845F1
:20042000F7D374E000F0E2F907462868800705D500F0DCF9C01B4845F7D368E0B8F1000F9E
:2004400003D0B06D20F08050B065A06A002860D0B16801F00C010C293FF4DDAE0228306889
:2004600020F08070306038D100F0C0F907463068800105D500F0BAF9C01B0328F7D346E061
:20048000206B616B401E090241EA0010A16B090940EA4140E16A0843E16B891E0905490DAB
:2004A00040EA4150216C891E090601F07E410843F060306840F080703060F06840F0807033
:2004C000F06000F093F907463068800121D400F08DF9C01B0328F7D319E03068000106D443
:2004E0003068800003D4F06880088000F060F068DFF8D8120840F06000F078F90746306866
:20050000800106D500F072F9C01B0328F7D3032000E00020BDE8F283306000F067B9B0685F
:2005200000F00C007047306840F0080030603068216A20F0F000084330607068E16920F474
:200540007F4040EA0120706070472DE9F843DFF8806204463068884600F00700404502D200
:2005600000F08DF864D12078DFF85072800705D5B868A16820F0F0000843B8602078C00754
:200580004ED56068022802D13968890308E0032802D13968890103E00028396802D1890726
:2005A00002D445E0490543D5B968890840EA8100B86041F2893900F019F905466068022831
:2005C0000AD1B86800F00C00082829D000F00EF9401B4845F5D321E003280AD1B86800F03D
:2005E0000C000C281CD000F001F9401B4845F5D314E048B9B86810F00C0F11D000F0F6F846
:20060000401B4845F6D309E0B86800F00C00042806D000F0EBF8401B4845F5D3032022E07A
:20062000306800F00700804504D200F028F801D0012018E02078400705D5B868E16820F460
:20064000E0600843B8602078000706D5B868216920F4605040EAC100B86000F01AF8BA68E8
:2006600000F003F80020BDE8F2835A49C2F30312895CC840524908600F2000F0BDB83068CC
:20068000C00848EAC0003060306800F00700404570474A498B680022002013F00C0F09D086
:2006A0008B6803F00C030C2B02BFCB6803F00303012B13D10A68120704D4474A1268C2F3EE
:2006C000032202E00A68C2F30312444B53F822208B6813F00C0F0ED110460CE08B6803F0A3
:2006E0000C03042B08BF3E4805D08B6803F00C03082B08BF3B488B6803F00C030C2B1ED10D
:20070000C868CB68C3F302135B1C00F00300022802D0032802D005E0314800E03148B0FBE6
:20072000F3F001E0B2FBF3F0CA68C968C1F34161C2F30622491C50434900B0FBF1F070474B
:2007400070B5294E82B0054630680024C00002D500F066F80EE0306840F080503060306831
:2007600000F080500090009800F05AF8316821F080513160B0F5007F04D1812D0DD3A12DEE
:200780000AD305E0812D28BF032406D2802D01D1022402E0702D00D101240D480168C9085A
:2007A00044EAC1010160006800F00700A04201D0012076BD002076BD0000000000100240DD
:2007C000004000209010024000700040FFFFEEFE00200240000E000894100240100E0008B9
:2007E0000024F40000127A005810024001480068704700BF0440002010B50446074800685A
:200800004FF47A71B0FBF1F000F056F8002221464FF0FF3000F026F8002010BD004000208E
:20082000DFF80800006800F4C0607047007000400901002802D42A4A11547047294A00F0FB
:200840000F00104400F8041C704727490A684FF6FF0300021A4000F4E0601043234A10439A
:200860000860704738B5204B1B68C3F30223C3F10704052C28BF04241D1D072D34BF002320
:20088000DB1E012505FA04F4641E2140994005FA03F35B1E1A401143BDE83440C8E7BFF3F0
:2008A0004F8F1148124A016801F4E06111430160BFF34F8F00BFFDE710B5401EB0F1807F5B
:2008C00001D3012010BD0B4C60600F214FF0FF30FFF7AEFF0020A06007202060002010BD4A
:2008E00000E400E018ED00E00CED00E00000FA050400FA0510E000E02DE9F047DFF8E85147
:2009000006462878002701288A461446984608BF022027D0012028704CF25039484600F0B5
:2009200034F801001CD16F6036B922464346504600F0C0F801270BE0012E18BF022E07D18F
:200940002146504600F0C0F8022E08BF4FF48027484600F01AF81FB164490A68BA430A602B
:2009600000212970BDE8F0876248C168002903D561490160614905E0012070475B4801684F
:2009800041F0004101600020704770B50546FFF72DFF2E18564C2068C00308D515F1010FF5
:2009A000F9D0FFF723FFB042F5D3032070BD206880071DD4206800071AD42068C00617D496
:2009C0002068800614D42068400611D4206800060ED42068C0050BD42068800508D4206861
:2009E000400405D4206800045CBFA068002803D500F009F8012070BD2068C00744BF012079
:200A00002060002070BD3A4937480A68920703D5426842F0010242600A68120703D5426896
:200A200042F0020242600A68D20603D5426842F0040242600A68920603D5426842F0080270
:200A400042600A68520603D5426842F0100242600A68120603D5426842F0200242600A684E
:200A6000D20503D5426842F0400242600A68920503D5426842F0800242600A68520403D586
:200A8000426842F4807242600A68120403D5426842F4007242608A68002A03D5426842F4BA
:200AA00080624260886840F0004088604CF2FA300860704710B50D490C6844F001040C60AF
:200AC00040F8042B036010BD30B5084A136843F48023136072B62022F1E80245E0E80245E7
:200AE000521EF9D162B630BD0840002014200240102002400820024023016745AB89EFCD3D
:200B00002DE9F047DFF83461044630780128894608BF02203ED0012030704CF2503A50461C
:200B2000FFF733FF804690BB7060DFF81451206801280CD1606800F02FF85046FFF725FF53
:200B400080462868DFF8FC10084028601DE04FF0FF30C9F80000A76800E07F1CA068E16885
:200B60000818874211D26168384600F027F85046FFF70BFF80462868DFF8CC100840B8F1C3
:200B8000000F2860E9D0C9F8007000F02FF8002030704046BDE8F087C207294903D50A68D6
:200BA00042F004020A60800703D5086840F400400860086840F4803008607047204AC9073B
:200BC00011684CBF21F4006141F400611160116821F4FF6141EAC0001060106840F0020021
:200BE0001060106840F48030106070471748016889050FD5016821F400710160016841F4DA
:200C000000610160016821F400610160016841F400710160016849050FD5016821F4806168
:200C20000160016841F480510160016821F480510160016841F480610160704708400020D4
:200C400014200240FB7FFFFF05F8FFFF0020024030B54C484C499BB0006800900098884296
:200C60006CD100F09BF810200A900120109060201290002011900220149001201590169014
:200C80002820179002201A9007201890042019900AA8FFF779FA00B1FEE70F200590042163
:200CA00003200690002007900890099005A8FFF74CFC00B1FEE70090019001200290334CBF
:200CC000204600F044F80390F8200490FFF74CFE694601A8FFF714FF00B1FEE7FFF74EFECA
:200CE000FFF742FE00252A4825F0070108446119D0E900230020FFF7FFFD00B1FEE7083583
:200D0000B5F5F82FEFDBFFF739FE00200090FFF72BFE00200190022002901A4800F017F876
:200D2000039069460120049001A8FFF7E9FE00B1FEE7FFF723FEFFF7B2FD05E013484168FB
:200D4000006880F30888884700201BB030BD114909884FF6FF7291420FBF0A4B0E4B03EAA4
:200D6000412303F10063984207D391420EBF4FF40021094A02EA4121401A00F17840C00A92
:200D80007047000000000808EFBEADDE0040000808000808E075FF1F00FE1F0080B503200C
:200DA000FFF753FD0F20FFF727FD00F002F8002002BD70470E480F4A016841F47001016005
:200DC0000D48016841F001010160002181600168114001604FF48051C160016821F4802150
:200DE0000160002181614FF0006004490860704788ED00E0FFFFF6EA0010024008ED00E02A
:200E000000000000000000000102030406070809A0860100400D0300801A060000350C0052
:200E200040420F0080841E0000093D0000127A000024F40000366E010048E801006CDC02F5
:200E400030B5016842688468014401EB5203D20748BF4C44994201D10C3030BD11F9012BAC
:200E600011F8015B002A04F8015B02D5521CF9D1F0E7521EF4D5EDE710B50749794418317D
:200E8000064C7C44163404E00A68081D114488470146A142F8D110BD2C0000003800000033
:200EA0004EF68851CEF20001086840F470000860BFF34F8FBFF36F8F4FF00070E1EE100A00
:200EC000704700007DFFFFFFD40100000C0000000040002000F00BF8002801D0FFF7CCFFF3
:200EE0000020AFF30080FFF7B3FE00F002F80120704700F001B800000746384600F002F8E9
:200F0000FBE7000080B5AFF30080024A11001820ABBEFBE7260002007047FEE7FEE7FEE72A
:200F2000FEE770477047704700F000B802480168491C0160704700BF04400020014880479C
:200F400001480047B50D00084D0F0008AFF30080FFF7A6FFFFF7BEFFFFF7FEBFFFF7FEBFFD
:200F6000FFF7FEBFFFF7FEBFFFF7FEBFFFF7FEBFFFF7FEBFFFF7FEBFFFF7FEBFFFF7FEBFD9
:200F8000FFF7FEBFFFF7FEBFFFF7FEBFFFF7FEBFFFF7FEBFFFF7FEBFFFF7FEBFFFF7FEBFB9
:200FA000FFF7FEBFFFF7FEBFFFF7FEBFFFF7FEBFFFF7FEBFFFF7FEBFFFF7FEBFFFF7FEBF99
:200FC000FFF7FEBFFFF7FEBFFFF7FEBFFFF7FEBFFFF7FEBFFFF7FEBFFFF7FEBFFFF7FEBF79
:200FE000FFF7FEBFFFF7FEBFFFF7FEBFFFF7FEBFFFF7FEBFFFF7FEBFFFF7FEBFFFF7FEBF59
:20100000FFF7FEBFFFF7FEBFFFF7FEBFFFF7FEBFFFF7FEBFFFF7FEBFFFF7FEBFFFF7FEBF38
:20102000FFF7FEBFFFF7FEBFFFF7FEBFFFF7FEBFFFF7FEBFFFF7FEBFFFF7FEBFFFF7FEBF18
:20104000FFF7FEBFFFF7FEBFFFF7FEBFFFF7FEBFFFF7FEBFFFF7FEBFFFF7FEBFFFF7FEBFF8
:20106000FFF7FEBFFFF7FEBFFFF7FEBFFFF7FEBFFFF7FEBFFFF7FEBFFFF7FEBFFFF7FEBFD8
:20108000FFF7FEBFFFF7FEBFFFF7FEBFFFF7FEBFFFF7FEBFFFF7FEBFFFF7FEBF0200093D23
:2010A000DF0000000000000000000000000000000000000000000000000000000000000051
:2010C000000000000000000000000000000000000000000000000000000000000000000010
:2010E0000000000000000000000000000000000000000000000000000000000000000000F0
:201100000000000000000000000000000000000000000000000000000000000000000000CF
:201120000000000000000000000000000000000000000000000000000000000000000000AF
:020000040800F2
:203E00004552524F52000D0A4F4B0D0A004F4B0D0A004F4B0D004F4B00000000000000005E
:203E2000000000000000000000000000000000000000000000000000000000000000000082
:203E4000000000000000000000000000000000000000000000000000000000000000000062
:203E6000000000000000000000000000000000000000000000000000000000000000000042
:203E8000000000000000000000000000000000000000000000000000000000000000000022
:203EA000000000000000000000000000000000000000000000000000000000000000000002
:203EC0000000000000000000000000000000000000000000000000000000000000000000E2
:203EE0000000000000000000000000000000000000000000000000000000000000000000C2
:143F000000020100EFBEADDE0000080800C007000040000853
:00000001FF
