:020000040800F2
:2000000028200020090D0008E50C0008E70C0008E90C0008EB0C0008ED0C00080000000069
:20002000000000000000000000000000EF0C0008F10C000800000000F30C0008F50C0008A8
:20004000250D0008290D00082D0D0008310D0008350D0008390D00083D0D0008410D000860
:20006000450D0008490D00084D0D0008510D0008550D0008590D00085D0D0008610D000840
:20008000650D0008690D00086D0D0008710D0008750D0008790D00087D0D0008810D000820
:2000A000850D0008890D00088D0D0008910D0008950D0008990D00089D0D0008A10D000800
:2000C000A50D0008A90D0008AD0D0008B10D0008B50D0008B90D0008BD0D0008C10D0008E0
:2000E000C50D0008C90D0008CD0D0008D10D0008D50D0008D90D0008DD0D0008E10D0008C0
:20010000E50D0008E90D0008ED0D0008F10D0008F50D0008F90D0008FD0D0008010E00089E
:20012000050E0008090E00080D0E0008110E0008150E0008190E00081D0E0008210E000877
:20014000250E0008290E00082D0E0008310E0008350E0008390E00083D0E0008410E000857
:20016000450E0008490E00084D0E0008510E0008550E0008590E00085D0E000800000000AE
:20018000610E0008650E0008690E00086D0E0008710E0008750E0008790E00087D0E000837
:2001A000810E0008850E0008890E00082DE9F8430446904D2078C0072FD5A86800F00C0087
:2001C000042807D0A86800F00C00082809D16868400206D5286880031FD56068E8B9012088
:2001E00005E16068A870606858B100F00DF907462868800311D400F007F9C01B6528F7D30B
:20020000F2E000F001F907462868800305D500F0FBF8C01B6528F7D3E6E02078764E80072A
:2002200018D5A86810F00C0F07D0A86800F00C00082826D16868400223D42868800702D5A5
:20024000E0680128CBD12868216920F0F80040EAC10028602078DFF8A48100073CD5616986
:20026000674859B30121016000F0CEF80746D8F80400800730D400F0C7F8C01B0328F6D360
:20028000B2E0E06868B10120306000F0BDF8074628688007D7D400F0B7F8C01B0328F7D397
:2002A000A2E0306000F0B0F8074628688007D1D500F0AAF8C01B0328F7D395E0016000F062
:2002C000A3F80746D8F80400800705D500F09CF8C01B0328F6D387E02078400740D5002033
:2002E0000090DFF82091286C40F080502864286C00F0805000900098D9F8000040F4807055
:20030000C9F8000000F080F80746D9F80000C00505D400F079F8C01B0328F6D364E0A0687C
:2003200088F8000041F28939A06860B100F06CF80746D8F80000800712D400F065F8C01B29
:200340004845F6D350E000F05FF80746D8F80000800705D500F058F8C01B4845F6D343E0BE
:20036000A069002842D0A96801F00C0108293FF436AF02282BD10020306600F045F807468C
:200380002868800105D500F03FF8C01B0328F7D32AE0E069216A0843616A40EA8110A16AC1
:2003A000891EC903090C40EA0140E16A40EA016068600120306600F027F807462868800188
:2003C00014D400F021F8C01B0328F7D30CE00020306600F019F807462868800106D500F090
:2003E00013F8C01B0328F7D3032000E00020BDE8F28300BF00380240000047427038024039
:20040000800E47420070004001480068704700BF040000202DE9F843734E0746307E012894
:20042000884614461D4608BF02202BD0012030764CF25039484600F038F8010020D127B93F
:20044000E1B2404600F088F812E0012F04D1A1B2404600F072F80BE0022F04D1214640460B
:2004600000F05CF804E022462B46404600F045F8484600F01AF85D490A68520852000A600A
:2004800000213176BDE8F2835A48C168002903D559490160594905E0012070475348016848
:2004A00041F0004101600020704770B505464E494F4C0020C861FFF7A7FF06462068C00374
:2004C0000AD515F1010FF9D025B1FFF79DFF801B8542F3D2032070BD2068C00744BF01200C
:2004E0002060206800F4F970B0F5F97F03D100F040F8012070BD002070BD10B53B490C6826
:2005000024F440740C600C6844F440740C600C6844F001040C60C0E9002310BD334A13682D
:2005200023F440731360136843F400731360136843F001031360016070472C4A136823F4A1
:2005400040731360136843F480731360136843F00103136001807047244A136823F440734D
:20056000136013681360136843F001031360017070471F491C480A68D20605D5C26942F080
:200580001002C26110220A600A68920605D5C26942F00802C26120220A600A68520605D5CC
:2005A000C26942F00402C26140220A600A68120605D5C26942F00202C26180220A600A6883
:2005C000D20506D5C26942F00102C2614FF480720A600A68920705D5C26942F02002C261C0
:2005E000022008607047000008000020103C02400C3C0240043C024023016745AB89EFCD38
:200600002DE9F8434D4E04463068884600F00F00404502D200F08AF862D12078484F80078B
:2006200005D5B868A16820F0F0000843B8602078C0074DD56068012802D13968890305E0FD
:20064000022818BF032803D13968890103D447E03968890744D5B968890840EA8100B860B2
:2006600041F28939FFF7D0FE0546606801280AD1B86800F00C0004282AD0FFF7C5FE401B54
:200680004845F5D322E002280AD1B86800F00C0008281DD0FFF7B8FE401B4845F5D315E074
:2006A00003280AD1B86800F00C000C2810D0FFF7ABFE401B4845F5D308E0B86810F00C0F92
:2006C00006D0FFF7A1FE401B4845F6D303202BE0306800F00F00804504D200F027F801D0BE
:2006E000012021E02078400705D5B868E16820F4E0500843B8602078000706D5B8682169EB
:2007000020F4604040EAC100B86000F025F8BA680FF23401C2F30312895CC840094908604C
:200720000F2000F043F80020BDE8F28386F80080306800F00F00404570470000003C0240D6
:200740000038024000000020000000000102030401020304060708091148416801F00C01CD
:20076000042902D0082902D017E00E48704701680268520201F03F014CBF0A4A0A4AB2FBBB
:20078000F1F102680068C0F30140C2F38812401C51434000B1FBF0F070470348704700BF2E
:2007A0000438024000127A000024F40010B50446074800684FF47A71B0FBF1F000F04EF861
:2007C000002221464FF0FF3000F01EF8002010BD000000200901002806D52A4A00F00F008F
:2007E000104400F8041C7047274A1154704727490A684FF6FF0300021A4000F4E06010433D
:20080000234A10430860704738B5204B1B68C3F30223C3F10704052C28BF04241D1D072DD6
:2008200034BF0023DB1E012505FA04F4641E2140994005FA03F35B1E1A401143BDE834409B
:20084000C8E7BFF34F8F1148124A016801F4E06111430160BFF34F8F00BFFDE710B5401EFA
:20086000B0F1807F01D3012010BD0B4C60600F214FF0FF30FFF7AEFF0020A06007202060F7
:20088000002010BD18ED00E000E400E00CED00E00000FA050400FA0510E000E02DE9F047CA
:2008A000DFF86C610446307E0128894608BF02203ED0012030764CF2503A5046FFF7F5FDA0
:2008C000804690BB4FF0FF30C9F80000DFF84451206801280ED120696168C0B200F02AF806
:2008E0005046FFF7E2FD80462868DFF82C110840286018E0A76800E07F1CE068A168081860
:20090000874210D22169C9B2384600F02FF85046FFF7CBFD5FEA0008286820F0FA002860CB
:20092000EAD0C9F8007000F049F8002030764046BDE8F087374A136823F4407303291360CE
:2009400005D1116841F4004141F0040106E0012911680CBF41F0040141F400411160000229
:20096000116840F4803008431060704700220B000AD0012908BF4FF4807205D002290CBFB0
:200980004FF400724FF4407222490B6823F440730B600C280B6828BF001D1A430A60C00068
:2009A0000A6822F0F8020A6040F002000A6810430860086840F480300860704717480168B5
:2009C00089050FD5016821F400710160016841F400610160016821F400610160016841F417
:2009E00000710160016849050FD5016821F480610160016841F480510160016821F48051AB
:200A00000160016841F48061016070470000000008000020103C0240FB7FFFFF003C024032
:200A200010B54B484B4992B0006800900098884240F0858000F098F80020009046480168D2
:200A400041F080510160006800F0805000900098002000904148016821F4404141F4004135
:200A60000160006800F4404000900098022006900120099010200A9002200C9000200D905A
:200A800010200E904FF4A8700F90042010900720119006A8FFF78AFB00B1FEE70F20019083
:200AA000022102200290002003904FF4805004900020059001A8FFF7A3FD00B1FEE70090EB
:200AC0000190022005900120039007200490FFF7DBFC694601A8FFF7E1FE00B1FEE7FFF7D9
:200AE000DDFCFFF7D1FC00241D4824F003010023425804F1006101F580410220FFF78AFC51
:200B000000B1FEE7241DB4F5F82FEDDBFFF7C6FC00200090FFF7B8FC0020019069460220D2
:200B20000590082003900420049001A8FFF7B6FE00B1FEE7FFF7B2FCFFF783FE05E0094873
:200B40004168006880F308888847002012B010BD00000808EFBEADDE403802400070004051
:200B6000080008080040000880B50B48016841F400710160016841F480610160016841F49F
:200B8000807101600320FFF732FE0F20FFF70EFE00F004F8002002BD003C02407047000089
:200BA0000E480F4A016841F4700101600D48016841F00101016000218160016811400160A7
:200BC00009494160016821F4802101600021C1604FF00060054908607047000088ED00E0FF
:200BE000FFFFF6FE003802401030002408ED00E030B5016842688468014401EB5203D2070D
:200C000048BF4C44994201D10C3030BD11F9012B11F8015B002A04F8015B02D5521CF9D13B
:200C2000F0E7521EF4D5EDE710B5074979441831064C7C44163404E00A68081D11448847BA
:200C40000146A142F8D110BD2C000000380000004EF68851CEF20001086840F47000086016
:200C6000BFF34F8FBFF36F8F4FF00070E1EE100A704700007DFFFFFF140200000C00000049
:200C8000000000204552524F52000D0A4F4B0D0A004F4B0D0A004F4B0D004F4B00000000F0
:200CA00000F00BF8002801D0FFF7BEFF0020AFF30080FFF7B5FE00F002F80120704700F0F8
:200CC00001B800000746384600F002F8FBE7000080B5AFF30080024A11001820ABBEFBE78D
:200CE000260002007047FEE7FEE7FEE7FEE770477047704700F000B802480168491C01603B
:200D0000704700BF040000200148804701480047A10B0008190D0008AFF30080FFF798FF08
:200D2000FFF7BEFFFFF7FEBFFFF7FEBFFFF7FEBFFFF7FEBFFFF7FEBFFFF7FEBFFFF7FEBF1B
:200D4000FFF7FEBFFFF7FEBFFFF7FEBFFFF7FEBFFFF7FEBFFFF7FEBFFFF7FEBFFFF7FEBFFB
:200D6000FFF7FEBFFFF7FEBFFFF7FEBFFFF7FEBFFFF7FEBFFFF7FEBFFFF7FEBFFFF7FEBFDB
:200D8000FFF7FEBFFFF7FEBFFFF7FEBFFFF7FEBFFFF7FEBFFFF7FEBFFFF7FEBFFFF7FEBFBB
:200DA000FFF7FEBFFFF7FEBFFFF7FEBFFFF7FEBFFFF7FEBFFFF7FEBFFFF7FEBFFFF7FEBF9B
:200DC000FFF7FEBFFFF7FEBFFFF7FEBFFFF7FEBFFFF7FEBFFFF7FEBFFFF7FEBFFFF7FEBF7B
:200DE000FFF7FEBFFFF7FEBFFFF7FEBFFFF7FEBFFFF7FEBFFFF7FEBFFFF7FEBFFFF7FEBF5B
:200E0000FFF7FEBFFFF7FEBFFFF7FEBFFFF7FEBFFFF7FEBFFFF7FEBFFFF7FEBFFFF7FEBF3A
:200E2000FFF7FEBFFFF7FEBFFFF7FEBFFFF7FEBFFFF7FEBFFFF7FEBFFFF7FEBFFFF7FEBF1A
:200E4000FFF7FEBFFFF7FEBFFFF7FEBFFFF7FEBFFFF7FEBFFFF7FEBFFFF7FEBFFFF7FEBFFA
:200E6000FFF7FEBFFFF7FEBFFFF7FEBFFFF7FEBFFFF7FEBFFFF7FEBFFFF7FEBFFFF7FEBFDA
:200E8000FFF7FEBFFFF7FEBFFFF7FEBF020024F4DB00000000000000000000000000000044
:200EA000000000000000000000000000000000000000000000000000000000000000000032
:200EC000000000000000000000000000000000000000000000000000000000000000000012
:200EE0000000000000000000000000000000000000000000000000000000000000000000F2
:200F00000000000000000000000000000000000000000000000000000000000000000000D1
:020000040800F2
:143F000000020100EFBEADDE0000080800C007000040000853
:00000001FF
